{
	"data": {
		"bytecode": {
			"linkReferences": {},
			"object": "61012060405234801562000011575f80fd5b5060405162002a2038038062002a2083398181016040528101906200003791906200048f565b8033805f8073ffffffffffffffffffffffffffffffffffffffff168273ffffffffffffffffffffffffffffffffffffffff1603620000ac576040517f08c379a0000000000000000000000000000000000000000000000000000000008152600401620000a39062000585565b60405180910390fd5b815f806101000a81548173ffffffffffffffffffffffffffffffffffffffff021916908373ffffffffffffffffffffffffffffffffffffffff1602179055505f73ffffffffffffffffffffffffffffffffffffffff168173ffffffffffffffffffffffffffffffffffffffff1614620001315762000130816200024f60201b60201c565b5b5050505f73ffffffffffffffffffffffffffffffffffffffff168173ffffffffffffffffffffffffffffffffffffffff16036200019a576040517fd92e233d00000000000000000000000000000000000000000000000000000000815260040160405180910390fd5b8060025f6101000a81548173ffffffffffffffffffffffffffffffffffffffff021916908373ffffffffffffffffffffffffffffffffffffffff1602179055505085608081815250508460a081815250508360e081815250508261010081815250505f60095f6101000a81548160ff02191690836001811115620002235762000222620005a5565b5b0217905550426006819055508163ffffffff1660c08163ffffffff168152505050505050505062000640565b3373ffffffffffffffffffffffffffffffffffffffff168173ffffffffffffffffffffffffffffffffffffffff1603620002c0576040517f08c379a0000000000000000000000000000000000000000000000000000000008152600401620002b79062000620565b60405180910390fd5b8060015f6101000a81548173ffffffffffffffffffffffffffffffffffffffff021916908373ffffffffffffffffffffffffffffffffffffffff1602179055508073ffffffffffffffffffffffffffffffffffffffff165f8054906101000a900473ffffffffffffffffffffffffffffffffffffffff1673ffffffffffffffffffffffffffffffffffffffff167fed8889f560326eb138920d842192f0eb3dd22b4f139c87a2c57538e05bae127860405160405180910390a350565b5f80fd5b5f819050919050565b620003948162000380565b81146200039f575f80fd5b50565b5f81519050620003b28162000389565b92915050565b5f819050919050565b620003cc81620003b8565b8114620003d7575f80fd5b50565b5f81519050620003ea81620003c1565b92915050565b5f63ffffffff82169050919050565b6200040a81620003f0565b811462000415575f80fd5b50565b5f815190506200042881620003ff565b92915050565b5f73ffffffffffffffffffffffffffffffffffffffff82169050919050565b5f62000459826200042e565b9050919050565b6200046b816200044d565b811462000476575f80fd5b50565b5f81519050620004898162000460565b92915050565b5f805f805f8060c08789031215620004ac57620004ab6200037c565b5b5f620004bb89828a01620003a2565b9650506020620004ce89828a01620003da565b9550506040620004e189828a01620003a2565b9450506060620004f489828a01620003a2565b93505060806200050789828a0162000418565b92505060a06200051a89828a0162000479565b9150509295509295509295565b5f82825260208201905092915050565b7f43616e6e6f7420736574206f776e657220746f207a65726f00000000000000005f82015250565b5f6200056d60188362000527565b91506200057a8262000537565b602082019050919050565b5f6020820190508181035f8301526200059e816200055f565b9050919050565b7f4e487b71000000000000000000000000000000000000000000000000000000005f52602160045260245ffd5b7f43616e6e6f74207472616e7366657220746f2073656c660000000000000000005f82015250565b5f6200060860178362000527565b91506200061582620005d2565b602082019050919050565b5f6020820190508181035f8301526200063981620005fa565b9050919050565b60805160a05160c05160e051610100516123946200068c5f395f81816104b001526105ad01525f8181610b070152610f6001525f61086701525f61081001525f61083601526123945ff3fe608060405260043610610129575f3560e01c80638796ba8c116100aa578063a168fa891161006e578063a168fa891461038e578063c1c244e8146103cb578063e55ae4e8146103f5578063f2fde38b14610431578063fc2a88c314610459578063fd6673f51461048357610129565b80638796ba8c146102ac5780638da5cb5b146102e85780638ea981171461031257806391ad27b41461033a5780639eccacf61461036457610129565b8063473f1ddc116100f1578063473f1ddc146101db57806353a2c19a146102055780635f1b0fd81461022f5780636e04ff0d1461025957806379ba50971461029657610129565b806309bc33a71461012d578063115cbaf5146101575780631fe543e3146101815780632cfcc539146101a95780634585e33b146101b3575b5f80fd5b348015610138575f80fd5b506101416104ad565b60405161014e91906116bc565b60405180910390f35b348015610162575f80fd5b5061016b6104d4565b6040516101789190611748565b60405180910390f35b34801561018c575f80fd5b506101a760048036038101906101a291906118ec565b6104e9565b005b6101b16105ab565b005b3480156101be575f80fd5b506101d960048036038101906101d4919061199f565b610715565b005b3480156101e6575f80fd5b506101ef610a87565b6040516101fc9190611a29565b60405180910390f35b348015610210575f80fd5b50610219610aaf565b60405161022691906116bc565b60405180910390f35b34801561023a575f80fd5b50610243610abd565b60405161025091906116bc565b60405180910390f35b348015610264575f80fd5b5061027f600480360381019061027a9190611af2565b610ac9565b60405161028d929190611bcd565b60405180910390f35b3480156102a1575f80fd5b506102aa610baa565b005b3480156102b7575f80fd5b506102d260048036038101906102cd9190611bfb565b610d39565b6040516102df91906116bc565b60405180910390f35b3480156102f3575f80fd5b506102fc610d59565b6040516103099190611a29565b60405180910390f35b34801561031d575f80fd5b5061033860048036038101906103339190611c50565b610d80565b005b348015610345575f80fd5b5061034e610f5d565b60405161035b91906116bc565b60405180910390f35b34801561036f575f80fd5b50610378610f84565b6040516103859190611cd6565b60405180910390f35b348015610399575f80fd5b506103b460048036038101906103af9190611bfb565b610fa9565b6040516103c2929190611cef565b60405180910390f35b3480156103d6575f80fd5b506103df610fe1565b6040516103ec91906116bc565b60405180910390f35b348015610400575f80fd5b5061041b60048036038101906104169190611bfb565b610fea565b6040516104289190611a29565b60405180910390f35b34801561043c575f80fd5b5061045760048036038101906104529190611c50565b61102e565b005b348015610464575f80fd5b5061046d611042565b60405161047a91906116bc565b60405180910390f35b34801561048e575f80fd5b50610497611048565b6040516104a491906116bc565b60405180910390f35b5f7f0000000000000000000000000000000000000000000000000000000000000000905090565b5f60095f9054906101000a900460ff16905090565b60025f9054906101000a900473ffffffffffffffffffffffffffffffffffffffff1673ffffffffffffffffffffffffffffffffffffffff163373ffffffffffffffffffffffffffffffffffffffff161461059d573360025f9054906101000a900473ffffffffffffffffffffffffffffffffffffffff166040517f1cf993f4000000000000000000000000000000000000000000000000000000008152600401610594929190611d16565b60405180910390fd5b6105a78282611054565b5050565b7f0000000000000000000000000000000000000000000000000000000000000000341015610605576040517f3038c00a00000000000000000000000000000000000000000000000000000000815260040160405180910390fd5b5f6001811115610618576106176116d5565b5b60095f9054906101000a900460ff166001811115610639576106386116d5565b5b14610670576040517fd24a271400000000000000000000000000000000000000000000000000000000815260040160405180910390fd5b600833908060018154018082558091505060019003905f5260205f20015f9091909190916101000a81548173ffffffffffffffffffffffffffffffffffffffff021916908373ffffffffffffffffffffffffffffffffffffffff1602179055503373ffffffffffffffffffffffffffffffffffffffff167f0805e1d667bddb8a95f0f09880cf94f403fb596ce79928d9f29b74203ba284d460405160405180910390a2565b5f61072d60405180602001604052805f815250610ac9565b5090508061079b574760088054905060095f9054906101000a900460ff16600181111561075d5761075c6116d5565b5b6040517f584327aa00000000000000000000000000000000000000000000000000000000815260040161079293929190611d3d565b60405180910390fd5b600160095f6101000a81548160ff021916908360018111156107c0576107bf6116d5565b5b02179055505f60025f9054906101000a900473ffffffffffffffffffffffffffffffffffffffff1673ffffffffffffffffffffffffffffffffffffffff16639b1c385e6040518060c001604052807f000000000000000000000000000000000000000000000000000000000000000081526020017f00000000000000000000000000000000000000000000000000000000000000008152602001600361ffff1681526020017f000000000000000000000000000000000000000000000000000000000000000063ffffffff168152602001600163ffffffff1681526020016108b760405180602001604052805f1515815250611366565b8152506040518263ffffffff1660e01b81526004016108d69190611ea1565b6020604051808303815f875af11580156108f2573d5f803e3d5ffd5b505050506040513d601f19601f820116820180604052508101906109169190611ed5565b905060405180606001604052805f151581526020016001151581526020015f67ffffffffffffffff81111561094e5761094d6117b0565b5b60405190808252806020026020018201604052801561097c5781602001602082028036833780820191505090505b5081525060035f8381526020019081526020015f205f820151815f015f6101000a81548160ff0219169083151502179055506020820151815f0160016101000a81548160ff02191690831515021790555060408201518160010190805190602001906109e99291906115b7565b50905050600481908060018154018082558091505060019003905f5260205f20015f9091909190915055806005819055507fcc58b13ad3eab50626c6a6300b1d139cd6ebb1688a7cced9461c2f7e762665ee816001604051610a4c929190611f0f565b60405180910390a1807fcd6e45c8998311cab7e9d4385596cac867e20a0587194b954fa3a731c93ce78b60405160405180910390a250505050565b5f60075f9054906101000a900473ffffffffffffffffffffffffffffffffffffffff16905090565b5f600163ffffffff16905090565b5f600361ffff16905090565b5f60605f60095f9054906101000a900460ff166001811115610aee57610aed6116d5565b5b5f6001811115610b0157610b006116d5565b5b1490505f7f000000000000000000000000000000000000000000000000000000000000000060065442610b349190611f63565b1190505f806008805490501190505f8047119050828015610b525750835b8015610b5b5750805b8015610b645750815b9550856040518060400160405280600381526020017f30783000000000000000000000000000000000000000000000000000000000008152509550955050505050915091565b60015f9054906101000a900473ffffffffffffffffffffffffffffffffffffffff1673ffffffffffffffffffffffffffffffffffffffff163373ffffffffffffffffffffffffffffffffffffffff1614610c39576040517f08c379a0000000000000000000000000000000000000000000000000000000008152600401610c3090611ff0565b60405180910390fd5b5f805f9054906101000a900473ffffffffffffffffffffffffffffffffffffffff169050335f806101000a81548173ffffffffffffffffffffffffffffffffffffffff021916908373ffffffffffffffffffffffffffffffffffffffff1602179055505f60015f6101000a81548173ffffffffffffffffffffffffffffffffffffffff021916908373ffffffffffffffffffffffffffffffffffffffff1602179055503373ffffffffffffffffffffffffffffffffffffffff168173ffffffffffffffffffffffffffffffffffffffff167f8be0079c531659141344cd1fd0a4f28419497f9722a3daafe3b4186f6b6457e060405160405180910390a350565b60048181548110610d48575f80fd5b905f5260205f20015f915090505481565b5f805f9054906101000a900473ffffffffffffffffffffffffffffffffffffffff16905090565b610d88610d59565b73ffffffffffffffffffffffffffffffffffffffff163373ffffffffffffffffffffffffffffffffffffffff1614158015610e10575060025f9054906101000a900473ffffffffffffffffffffffffffffffffffffffff1673ffffffffffffffffffffffffffffffffffffffff163373ffffffffffffffffffffffffffffffffffffffff1614155b15610e7e5733610e1e610d59565b60025f9054906101000a900473ffffffffffffffffffffffffffffffffffffffff166040517f061db9c1000000000000000000000000000000000000000000000000000000008152600401610e759392919061200e565b60405180910390fd5b5f73ffffffffffffffffffffffffffffffffffffffff168173ffffffffffffffffffffffffffffffffffffffff1603610ee3576040517fd92e233d00000000000000000000000000000000000000000000000000000000815260040160405180910390fd5b8060025f6101000a81548173ffffffffffffffffffffffffffffffffffffffff021916908373ffffffffffffffffffffffffffffffffffffffff1602179055507fd1a6a14209a385a964d036e404cb5cfb71f4000cdb03c9366292430787261be681604051610f529190611a29565b60405180910390a150565b5f7f0000000000000000000000000000000000000000000000000000000000000000905090565b60025f9054906101000a900473ffffffffffffffffffffffffffffffffffffffff1681565b6003602052805f5260405f205f91509050805f015f9054906101000a900460ff1690805f0160019054906101000a900460ff16905082565b5f600654905090565b5f60088281548110610fff57610ffe612043565b5b905f5260205f20015f9054906101000a900473ffffffffffffffffffffffffffffffffffffffff169050919050565b6110366113fe565b61103f8161148d565b50565b60055481565b5f600880549050905090565b60035f8381526020019081526020015f205f0160019054906101000a900460ff166110b4576040517f08c379a00000000000000000000000000000000000000000000000000000000081526004016110ab906120ba565b60405180910390fd5b600160035f8481526020019081526020015f205f015f6101000a81548160ff0219169083151502179055508060035f8481526020019081526020015f2060010190805190602001906111079291906115b7565b507ffe2e2d779dba245964d4e3ef9b994be63856fd568bf7d3ca9e224755cb1bd54d8282604051611139929190612180565b60405180910390a15f600880549050825f8151811061115b5761115a612043565b5b602002602001015161116d91906121db565b90505f6008828154811061118457611183612043565b5b905f5260205f20015f9054906101000a900473ffffffffffffffffffffffffffffffffffffffff1690508060075f6101000a81548173ffffffffffffffffffffffffffffffffffffffff021916908373ffffffffffffffffffffffffffffffffffffffff1602179055505f67ffffffffffffffff811115611208576112076117b0565b5b6040519080825280602002602001820160405280156112365781602001602082028036833780820191505090505b506008908051906020019061124c929190611602565b505f60095f6101000a81548160ff02191690836001811115611271576112706116d5565b5b0217905550426006819055508073ffffffffffffffffffffffffffffffffffffffff167f5b690ec4a06fe979403046eaeea5b3ce38524683c3001f662c8b5a829632f7df60405160405180910390a25f8173ffffffffffffffffffffffffffffffffffffffff16476040516112e590612238565b5f6040518083038185875af1925050503d805f811461131f576040519150601f19603f3d011682016040523d82523d5f602084013e611324565b606091505b505090508061135f576040517fa1d04b3900000000000000000000000000000000000000000000000000000000815260040160405180910390fd5b5050505050565b60607f92fd13387c7fe7befbc38d303d6468778fb9731bc4583f17d92989c6fcfdeaaa8260405160240161139a9190612275565b604051602081830303815290604052907bffffffffffffffffffffffffffffffffffffffffffffffffffffffff19166020820180517bffffffffffffffffffffffffffffffffffffffffffffffffffffffff83818316178352505050509050919050565b5f8054906101000a900473ffffffffffffffffffffffffffffffffffffffff1673ffffffffffffffffffffffffffffffffffffffff163373ffffffffffffffffffffffffffffffffffffffff161461148b576040517f08c379a0000000000000000000000000000000000000000000000000000000008152600401611482906122d8565b60405180910390fd5b565b3373ffffffffffffffffffffffffffffffffffffffff168173ffffffffffffffffffffffffffffffffffffffff16036114fb576040517f08c379a00000000000000000000000000000000000000000000000000000000081526004016114f290612340565b60405180910390fd5b8060015f6101000a81548173ffffffffffffffffffffffffffffffffffffffff021916908373ffffffffffffffffffffffffffffffffffffffff1602179055508073ffffffffffffffffffffffffffffffffffffffff165f8054906101000a900473ffffffffffffffffffffffffffffffffffffffff1673ffffffffffffffffffffffffffffffffffffffff167fed8889f560326eb138920d842192f0eb3dd22b4f139c87a2c57538e05bae127860405160405180910390a350565b828054828255905f5260205f209081019282156115f1579160200282015b828111156115f05782518255916020019190600101906115d5565b5b5090506115fe9190611689565b5090565b828054828255905f5260205f20908101928215611678579160200282015b82811115611677578251825f6101000a81548173ffffffffffffffffffffffffffffffffffffffff021916908373ffffffffffffffffffffffffffffffffffffffff16021790555091602001919060010190611620565b5b5090506116859190611689565b5090565b5b808211156116a0575f815f90555060010161168a565b5090565b5f819050919050565b6116b6816116a4565b82525050565b5f6020820190506116cf5f8301846116ad565b92915050565b7f4e487b71000000000000000000000000000000000000000000000000000000005f52602160045260245ffd5b60028110611713576117126116d5565b5b50565b5f81905061172382611702565b919050565b5f61173282611716565b9050919050565b61174281611728565b82525050565b5f60208201905061175b5f830184611739565b92915050565b5f604051905090565b5f80fd5b5f80fd5b61177b816116a4565b8114611785575f80fd5b50565b5f8135905061179681611772565b92915050565b5f80fd5b5f601f19601f8301169050919050565b7f4e487b71000000000000000000000000000000000000000000000000000000005f52604160045260245ffd5b6117e6826117a0565b810181811067ffffffffffffffff82111715611805576118046117b0565b5b80604052505050565b5f611817611761565b905061182382826117dd565b919050565b5f67ffffffffffffffff821115611842576118416117b0565b5b602082029050602081019050919050565b5f80fd5b5f61186961186484611828565b61180e565b9050808382526020820190506020840283018581111561188c5761188b611853565b5b835b818110156118b557806118a18882611788565b84526020840193505060208101905061188e565b5050509392505050565b5f82601f8301126118d3576118d261179c565b5b81356118e3848260208601611857565b91505092915050565b5f80604083850312156119025761190161176a565b5b5f61190f85828601611788565b925050602083013567ffffffffffffffff8111156119305761192f61176e565b5b61193c858286016118bf565b9150509250929050565b5f80fd5b5f8083601f84011261195f5761195e61179c565b5b8235905067ffffffffffffffff81111561197c5761197b611946565b5b60208301915083600182028301111561199857611997611853565b5b9250929050565b5f80602083850312156119b5576119b461176a565b5b5f83013567ffffffffffffffff8111156119d2576119d161176e565b5b6119de8582860161194a565b92509250509250929050565b5f73ffffffffffffffffffffffffffffffffffffffff82169050919050565b5f611a13826119ea565b9050919050565b611a2381611a09565b82525050565b5f602082019050611a3c5f830184611a1a565b92915050565b5f80fd5b5f67ffffffffffffffff821115611a6057611a5f6117b0565b5b611a69826117a0565b9050602081019050919050565b828183375f83830152505050565b5f611a96611a9184611a46565b61180e565b905082815260208101848484011115611ab257611ab1611a42565b5b611abd848285611a76565b509392505050565b5f82601f830112611ad957611ad861179c565b5b8135611ae9848260208601611a84565b91505092915050565b5f60208284031215611b0757611b0661176a565b5b5f82013567ffffffffffffffff811115611b2457611b2361176e565b5b611b3084828501611ac5565b91505092915050565b5f8115159050919050565b611b4d81611b39565b82525050565b5f81519050919050565b5f82825260208201905092915050565b5f5b83811015611b8a578082015181840152602081019050611b6f565b5f8484015250505050565b5f611b9f82611b53565b611ba98185611b5d565b9350611bb9818560208601611b6d565b611bc2816117a0565b840191505092915050565b5f604082019050611be05f830185611b44565b8181036020830152611bf28184611b95565b90509392505050565b5f60208284031215611c1057611c0f61176a565b5b5f611c1d84828501611788565b91505092915050565b611c2f81611a09565b8114611c39575f80fd5b50565b5f81359050611c4a81611c26565b92915050565b5f60208284031215611c6557611c6461176a565b5b5f611c7284828501611c3c565b91505092915050565b5f819050919050565b5f611c9e611c99611c94846119ea565b611c7b565b6119ea565b9050919050565b5f611caf82611c84565b9050919050565b5f611cc082611ca5565b9050919050565b611cd081611cb6565b82525050565b5f602082019050611ce95f830184611cc7565b92915050565b5f604082019050611d025f830185611b44565b611d0f6020830184611b44565b9392505050565b5f604082019050611d295f830185611a1a565b611d366020830184611a1a565b9392505050565b5f606082019050611d505f8301866116ad565b611d5d60208301856116ad565b611d6a60408301846116ad565b949350505050565b5f819050919050565b611d8481611d72565b82525050565b611d93816116a4565b82525050565b5f61ffff82169050919050565b611daf81611d99565b82525050565b5f63ffffffff82169050919050565b611dcd81611db5565b82525050565b5f82825260208201905092915050565b5f611ded82611b53565b611df78185611dd3565b9350611e07818560208601611b6d565b611e10816117a0565b840191505092915050565b5f60c083015f830151611e305f860182611d7b565b506020830151611e436020860182611d8a565b506040830151611e566040860182611da6565b506060830151611e696060860182611dc4565b506080830151611e7c6080860182611dc4565b5060a083015184820360a0860152611e948282611de3565b9150508091505092915050565b5f6020820190508181035f830152611eb98184611e1b565b905092915050565b5f81519050611ecf81611772565b92915050565b5f60208284031215611eea57611ee961176a565b5b5f611ef784828501611ec1565b91505092915050565b611f0981611db5565b82525050565b5f604082019050611f225f8301856116ad565b611f2f6020830184611f00565b9392505050565b7f4e487b71000000000000000000000000000000000000000000000000000000005f52601160045260245ffd5b5f611f6d826116a4565b9150611f78836116a4565b9250828203905081811115611f9057611f8f611f36565b5b92915050565b5f82825260208201905092915050565b7f4d7573742062652070726f706f736564206f776e6572000000000000000000005f82015250565b5f611fda601683611f96565b9150611fe582611fa6565b602082019050919050565b5f6020820190508181035f83015261200781611fce565b9050919050565b5f6060820190506120215f830186611a1a565b61202e6020830185611a1a565b61203b6040830184611a1a565b949350505050565b7f4e487b71000000000000000000000000000000000000000000000000000000005f52603260045260245ffd5b7f72657175657374206e6f7420666f756e640000000000000000000000000000005f82015250565b5f6120a4601183611f96565b91506120af82612070565b602082019050919050565b5f6020820190508181035f8301526120d181612098565b9050919050565b5f81519050919050565b5f82825260208201905092915050565b5f819050602082019050919050565b5f61210c8383611d8a565b60208301905092915050565b5f602082019050919050565b5f61212e826120d8565b61213881856120e2565b9350612143836120f2565b805f5b8381101561217357815161215a8882612101565b975061216583612118565b925050600181019050612146565b5085935050505092915050565b5f6040820190506121935f8301856116ad565b81810360208301526121a58184612124565b90509392505050565b7f4e487b71000000000000000000000000000000000000000000000000000000005f52601260045260245ffd5b5f6121e5826116a4565b91506121f0836116a4565b925082612200576121ff6121ae565b5b828206905092915050565b5f81905092915050565b50565b5f6122235f8361220b565b915061222e82612215565b5f82019050919050565b5f61224282612218565b9150819050919050565b61225581611b39565b82525050565b602082015f82015161226f5f85018261224c565b50505050565b5f6020820190506122885f83018461225b565b92915050565b7f4f6e6c792063616c6c61626c65206279206f776e6572000000000000000000005f82015250565b5f6122c2601683611f96565b91506122cd8261228e565b602082019050919050565b5f6020820190508181035f8301526122ef816122b6565b9050919050565b7f43616e6e6f74207472616e7366657220746f2073656c660000000000000000005f82015250565b5f61232a601783611f96565b9150612335826122f6565b602082019050919050565b5f6020820190508181035f8301526123578161231e565b905091905056fea26469706673582212205087a40f202374948461f07496d8583c2bccf6a6fd7f569236fc43f9ba04ab8164736f6c63430008140033",
			"opcodes": "PUSH2 0x120 PUSH1 0x40 MSTORE CALLVALUE DUP1 ISZERO PUSH3 0x11 JUMPI PUSH0 DUP1 REVERT JUMPDEST POP PUSH1 0x40 MLOAD PUSH3 0x2A20 CODESIZE SUB DUP1 PUSH3 0x2A20 DUP4 CODECOPY DUP2 DUP2 ADD PUSH1 0x40 MSTORE DUP2 ADD SWAP1 PUSH3 0x37 SWAP2 SWAP1 PUSH3 0x48F JUMP JUMPDEST DUP1 CALLER DUP1 PUSH0 DUP1 PUSH20 0xFFFFFFFFFFFFFFFFFFFFFFFFFFFFFFFFFFFFFFFF AND DUP3 PUSH20 0xFFFFFFFFFFFFFFFFFFFFFFFFFFFFFFFFFFFFFFFF AND SUB PUSH3 0xAC JUMPI PUSH1 0x40 MLOAD PUSH32 0x8C379A000000000000000000000000000000000000000000000000000000000 DUP2 MSTORE PUSH1 0x4 ADD PUSH3 0xA3 SWAP1 PUSH3 0x585 JUMP JUMPDEST PUSH1 0x40 MLOAD DUP1 SWAP2 SUB SWAP1 REVERT JUMPDEST DUP2 PUSH0 DUP1 PUSH2 0x100 EXP DUP2 SLOAD DUP2 PUSH20 0xFFFFFFFFFFFFFFFFFFFFFFFFFFFFFFFFFFFFFFFF MUL NOT AND SWAP1 DUP4 PUSH20 0xFFFFFFFFFFFFFFFFFFFFFFFFFFFFFFFFFFFFFFFF AND MUL OR SWAP1 SSTORE POP PUSH0 PUSH20 0xFFFFFFFFFFFFFFFFFFFFFFFFFFFFFFFFFFFFFFFF AND DUP2 PUSH20 0xFFFFFFFFFFFFFFFFFFFFFFFFFFFFFFFFFFFFFFFF AND EQ PUSH3 0x131 JUMPI PUSH3 0x130 DUP2 PUSH3 0x24F PUSH1 0x20 SHL PUSH1 0x20 SHR JUMP JUMPDEST JUMPDEST POP POP POP PUSH0 PUSH20 0xFFFFFFFFFFFFFFFFFFFFFFFFFFFFFFFFFFFFFFFF AND DUP2 PUSH20 0xFFFFFFFFFFFFFFFFFFFFFFFFFFFFFFFFFFFFFFFF AND SUB PUSH3 0x19A JUMPI PUSH1 0x40 MLOAD PUSH32 0xD92E233D00000000000000000000000000000000000000000000000000000000 DUP2 MSTORE PUSH1 0x4 ADD PUSH1 0x40 MLOAD DUP1 SWAP2 SUB SWAP1 REVERT JUMPDEST DUP1 PUSH1 0x2 PUSH0 PUSH2 0x100 EXP DUP2 SLOAD DUP2 PUSH20 0xFFFFFFFFFFFFFFFFFFFFFFFFFFFFFFFFFFFFFFFF MUL NOT AND SWAP1 DUP4 PUSH20 0xFFFFFFFFFFFFFFFFFFFFFFFFFFFFFFFFFFFFFFFF AND MUL OR SWAP1 SSTORE POP POP DUP6 PUSH1 0x80 DUP2 DUP2 MSTORE POP POP DUP5 PUSH1 0xA0 DUP2 DUP2 MSTORE POP POP DUP4 PUSH1 0xE0 DUP2 DUP2 MSTORE POP POP DUP3 PUSH2 0x100 DUP2 DUP2 MSTORE POP POP PUSH0 PUSH1 0x9 PUSH0 PUSH2 0x100 EXP DUP2 SLOAD DUP2 PUSH1 0xFF MUL NOT AND SWAP1 DUP4 PUSH1 0x1 DUP2 GT ISZERO PUSH3 0x223 JUMPI PUSH3 0x222 PUSH3 0x5A5 JUMP JUMPDEST JUMPDEST MUL OR SWAP1 SSTORE POP TIMESTAMP PUSH1 0x6 DUP2 SWAP1 SSTORE POP DUP2 PUSH4 0xFFFFFFFF AND PUSH1 0xC0 DUP2 PUSH4 0xFFFFFFFF AND DUP2 MSTORE POP POP POP POP POP POP POP POP PUSH3 0x640 JUMP JUMPDEST CALLER PUSH20 0xFFFFFFFFFFFFFFFFFFFFFFFFFFFFFFFFFFFFFFFF AND DUP2 PUSH20 0xFFFFFFFFFFFFFFFFFFFFFFFFFFFFFFFFFFFFFFFF AND SUB PUSH3 0x2C0 JUMPI PUSH1 0x40 MLOAD PUSH32 0x8C379A000000000000000000000000000000000000000000000000000000000 DUP2 MSTORE PUSH1 0x4 ADD PUSH3 0x2B7 SWAP1 PUSH3 0x620 JUMP JUMPDEST PUSH1 0x40 MLOAD DUP1 SWAP2 SUB SWAP1 REVERT JUMPDEST DUP1 PUSH1 0x1 PUSH0 PUSH2 0x100 EXP DUP2 SLOAD DUP2 PUSH20 0xFFFFFFFFFFFFFFFFFFFFFFFFFFFFFFFFFFFFFFFF MUL NOT AND SWAP1 DUP4 PUSH20 0xFFFFFFFFFFFFFFFFFFFFFFFFFFFFFFFFFFFFFFFF AND MUL OR SWAP1 SSTORE POP DUP1 PUSH20 0xFFFFFFFFFFFFFFFFFFFFFFFFFFFFFFFFFFFFFFFF AND PUSH0 DUP1 SLOAD SWAP1 PUSH2 0x100 EXP SWAP1 DIV PUSH20 0xFFFFFFFFFFFFFFFFFFFFFFFFFFFFFFFFFFFFFFFF AND PUSH20 0xFFFFFFFFFFFFFFFFFFFFFFFFFFFFFFFFFFFFFFFF AND PUSH32 0xED8889F560326EB138920D842192F0EB3DD22B4F139C87A2C57538E05BAE1278 PUSH1 0x40 MLOAD PUSH1 0x40 MLOAD DUP1 SWAP2 SUB SWAP1 LOG3 POP JUMP JUMPDEST PUSH0 DUP1 REVERT JUMPDEST PUSH0 DUP2 SWAP1 POP SWAP2 SWAP1 POP JUMP JUMPDEST PUSH3 0x394 DUP2 PUSH3 0x380 JUMP JUMPDEST DUP2 EQ PUSH3 0x39F JUMPI PUSH0 DUP1 REVERT JUMPDEST POP JUMP JUMPDEST PUSH0 DUP2 MLOAD SWAP1 POP PUSH3 0x3B2 DUP2 PUSH3 0x389 JUMP JUMPDEST SWAP3 SWAP2 POP POP JUMP JUMPDEST PUSH0 DUP2 SWAP1 POP SWAP2 SWAP1 POP JUMP JUMPDEST PUSH3 0x3CC DUP2 PUSH3 0x3B8 JUMP JUMPDEST DUP2 EQ PUSH3 0x3D7 JUMPI PUSH0 DUP1 REVERT JUMPDEST POP JUMP JUMPDEST PUSH0 DUP2 MLOAD SWAP1 POP PUSH3 0x3EA DUP2 PUSH3 0x3C1 JUMP JUMPDEST SWAP3 SWAP2 POP POP JUMP JUMPDEST PUSH0 PUSH4 0xFFFFFFFF DUP3 AND SWAP1 POP SWAP2 SWAP1 POP JUMP JUMPDEST PUSH3 0x40A DUP2 PUSH3 0x3F0 JUMP JUMPDEST DUP2 EQ PUSH3 0x415 JUMPI PUSH0 DUP1 REVERT JUMPDEST POP JUMP JUMPDEST PUSH0 DUP2 MLOAD SWAP1 POP PUSH3 0x428 DUP2 PUSH3 0x3FF JUMP JUMPDEST SWAP3 SWAP2 POP POP JUMP JUMPDEST PUSH0 PUSH20 0xFFFFFFFFFFFFFFFFFFFFFFFFFFFFFFFFFFFFFFFF DUP3 AND SWAP1 POP SWAP2 SWAP1 POP JUMP JUMPDEST PUSH0 PUSH3 0x459 DUP3 PUSH3 0x42E JUMP JUMPDEST SWAP1 POP SWAP2 SWAP1 POP JUMP JUMPDEST PUSH3 0x46B DUP2 PUSH3 0x44D JUMP JUMPDEST DUP2 EQ PUSH3 0x476 JUMPI PUSH0 DUP1 REVERT JUMPDEST POP JUMP JUMPDEST PUSH0 DUP2 MLOAD SWAP1 POP PUSH3 0x489 DUP2 PUSH3 0x460 JUMP JUMPDEST SWAP3 SWAP2 POP POP JUMP JUMPDEST PUSH0 DUP1 PUSH0 DUP1 PUSH0 DUP1 PUSH1 0xC0 DUP8 DUP10 SUB SLT ISZERO PUSH3 0x4AC JUMPI PUSH3 0x4AB PUSH3 0x37C JUMP JUMPDEST JUMPDEST PUSH0 PUSH3 0x4BB DUP10 DUP3 DUP11 ADD PUSH3 0x3A2 JUMP JUMPDEST SWAP7 POP POP PUSH1 0x20 PUSH3 0x4CE DUP10 DUP3 DUP11 ADD PUSH3 0x3DA JUMP JUMPDEST SWAP6 POP POP PUSH1 0x40 PUSH3 0x4E1 DUP10 DUP3 DUP11 ADD PUSH3 0x3A2 JUMP JUMPDEST SWAP5 POP POP PUSH1 0x60 PUSH3 0x4F4 DUP10 DUP3 DUP11 ADD PUSH3 0x3A2 JUMP JUMPDEST SWAP4 POP POP PUSH1 0x80 PUSH3 0x507 DUP10 DUP3 DUP11 ADD PUSH3 0x418 JUMP JUMPDEST SWAP3 POP POP PUSH1 0xA0 PUSH3 0x51A DUP10 DUP3 DUP11 ADD PUSH3 0x479 JUMP JUMPDEST SWAP2 POP POP SWAP3 SWAP6 POP SWAP3 SWAP6 POP SWAP3 SWAP6 JUMP JUMPDEST PUSH0 DUP3 DUP3 MSTORE PUSH1 0x20 DUP3 ADD SWAP1 POP SWAP3 SWAP2 POP POP JUMP JUMPDEST PUSH32 0x43616E6E6F7420736574206F776E657220746F207A65726F0000000000000000 PUSH0 DUP3 ADD MSTORE POP JUMP JUMPDEST PUSH0 PUSH3 0x56D PUSH1 0x18 DUP4 PUSH3 0x527 JUMP JUMPDEST SWAP2 POP PUSH3 0x57A DUP3 PUSH3 0x537 JUMP JUMPDEST PUSH1 0x20 DUP3 ADD SWAP1 POP SWAP2 SWAP1 POP JUMP JUMPDEST PUSH0 PUSH1 0x20 DUP3 ADD SWAP1 POP DUP2 DUP2 SUB PUSH0 DUP4 ADD MSTORE PUSH3 0x59E DUP2 PUSH3 0x55F JUMP JUMPDEST SWAP1 POP SWAP2 SWAP1 POP JUMP JUMPDEST PUSH32 0x4E487B7100000000000000000000000000000000000000000000000000000000 PUSH0 MSTORE PUSH1 0x21 PUSH1 0x4 MSTORE PUSH1 0x24 PUSH0 REVERT JUMPDEST PUSH32 0x43616E6E6F74207472616E7366657220746F2073656C66000000000000000000 PUSH0 DUP3 ADD MSTORE POP JUMP JUMPDEST PUSH0 PUSH3 0x608 PUSH1 0x17 DUP4 PUSH3 0x527 JUMP JUMPDEST SWAP2 POP PUSH3 0x615 DUP3 PUSH3 0x5D2 JUMP JUMPDEST PUSH1 0x20 DUP3 ADD SWAP1 POP SWAP2 SWAP1 POP JUMP JUMPDEST PUSH0 PUSH1 0x20 DUP3 ADD SWAP1 POP DUP2 DUP2 SUB PUSH0 DUP4 ADD MSTORE PUSH3 0x639 DUP2 PUSH3 0x5FA JUMP JUMPDEST SWAP1 POP SWAP2 SWAP1 POP JUMP JUMPDEST PUSH1 0x80 MLOAD PUSH1 0xA0 MLOAD PUSH1 0xC0 MLOAD PUSH1 0xE0 MLOAD PUSH2 0x100 MLOAD PUSH2 0x2394 PUSH3 0x68C PUSH0 CODECOPY PUSH0 DUP2 DUP2 PUSH2 0x4B0 ADD MSTORE PUSH2 0x5AD ADD MSTORE PUSH0 DUP2 DUP2 PUSH2 0xB07 ADD MSTORE PUSH2 0xF60 ADD MSTORE PUSH0 PUSH2 0x867 ADD MSTORE PUSH0 PUSH2 0x810 ADD MSTORE PUSH0 PUSH2 0x836 ADD MSTORE PUSH2 0x2394 PUSH0 RETURN INVALID PUSH1 0x80 PUSH1 0x40 MSTORE PUSH1 0x4 CALLDATASIZE LT PUSH2 0x129 JUMPI PUSH0 CALLDATALOAD PUSH1 0xE0 SHR DUP1 PUSH4 0x8796BA8C GT PUSH2 0xAA JUMPI DUP1 PUSH4 0xA168FA89 GT PUSH2 0x6E JUMPI DUP1 PUSH4 0xA168FA89 EQ PUSH2 0x38E JUMPI DUP1 PUSH4 0xC1C244E8 EQ PUSH2 0x3CB JUMPI DUP1 PUSH4 0xE55AE4E8 EQ PUSH2 0x3F5 JUMPI DUP1 PUSH4 0xF2FDE38B EQ PUSH2 0x431 JUMPI DUP1 PUSH4 0xFC2A88C3 EQ PUSH2 0x459 JUMPI DUP1 PUSH4 0xFD6673F5 EQ PUSH2 0x483 JUMPI PUSH2 0x129 JUMP JUMPDEST DUP1 PUSH4 0x8796BA8C EQ PUSH2 0x2AC JUMPI DUP1 PUSH4 0x8DA5CB5B EQ PUSH2 0x2E8 JUMPI DUP1 PUSH4 0x8EA98117 EQ PUSH2 0x312 JUMPI DUP1 PUSH4 0x91AD27B4 EQ PUSH2 0x33A JUMPI DUP1 PUSH4 0x9ECCACF6 EQ PUSH2 0x364 JUMPI PUSH2 0x129 JUMP JUMPDEST DUP1 PUSH4 0x473F1DDC GT PUSH2 0xF1 JUMPI DUP1 PUSH4 0x473F1DDC EQ PUSH2 0x1DB JUMPI DUP1 PUSH4 0x53A2C19A EQ PUSH2 0x205 JUMPI DUP1 PUSH4 0x5F1B0FD8 EQ PUSH2 0x22F JUMPI DUP1 PUSH4 0x6E04FF0D EQ PUSH2 0x259 JUMPI DUP1 PUSH4 0x79BA5097 EQ PUSH2 0x296 JUMPI PUSH2 0x129 JUMP JUMPDEST DUP1 PUSH4 0x9BC33A7 EQ PUSH2 0x12D JUMPI DUP1 PUSH4 0x115CBAF5 EQ PUSH2 0x157 JUMPI DUP1 PUSH4 0x1FE543E3 EQ PUSH2 0x181 JUMPI DUP1 PUSH4 0x2CFCC539 EQ PUSH2 0x1A9 JUMPI DUP1 PUSH4 0x4585E33B EQ PUSH2 0x1B3 JUMPI JUMPDEST PUSH0 DUP1 REVERT JUMPDEST CALLVALUE DUP1 ISZERO PUSH2 0x138 JUMPI PUSH0 DUP1 REVERT JUMPDEST POP PUSH2 0x141 PUSH2 0x4AD JUMP JUMPDEST PUSH1 0x40 MLOAD PUSH2 0x14E SWAP2 SWAP1 PUSH2 0x16BC JUMP JUMPDEST PUSH1 0x40 MLOAD DUP1 SWAP2 SUB SWAP1 RETURN JUMPDEST CALLVALUE DUP1 ISZERO PUSH2 0x162 JUMPI PUSH0 DUP1 REVERT JUMPDEST POP PUSH2 0x16B PUSH2 0x4D4 JUMP JUMPDEST PUSH1 0x40 MLOAD PUSH2 0x178 SWAP2 SWAP1 PUSH2 0x1748 JUMP JUMPDEST PUSH1 0x40 MLOAD DUP1 SWAP2 SUB SWAP1 RETURN JUMPDEST CALLVALUE DUP1 ISZERO PUSH2 0x18C JUMPI PUSH0 DUP1 REVERT JUMPDEST POP PUSH2 0x1A7 PUSH1 0x4 DUP1 CALLDATASIZE SUB DUP2 ADD SWAP1 PUSH2 0x1A2 SWAP2 SWAP1 PUSH2 0x18EC JUMP JUMPDEST PUSH2 0x4E9 JUMP JUMPDEST STOP JUMPDEST PUSH2 0x1B1 PUSH2 0x5AB JUMP JUMPDEST STOP JUMPDEST CALLVALUE DUP1 ISZERO PUSH2 0x1BE JUMPI PUSH0 DUP1 REVERT JUMPDEST POP PUSH2 0x1D9 PUSH1 0x4 DUP1 CALLDATASIZE SUB DUP2 ADD SWAP1 PUSH2 0x1D4 SWAP2 SWAP1 PUSH2 0x199F JUMP JUMPDEST PUSH2 0x715 JUMP JUMPDEST STOP JUMPDEST CALLVALUE DUP1 ISZERO PUSH2 0x1E6 JUMPI PUSH0 DUP1 REVERT JUMPDEST POP PUSH2 0x1EF PUSH2 0xA87 JUMP JUMPDEST PUSH1 0x40 MLOAD PUSH2 0x1FC SWAP2 SWAP1 PUSH2 0x1A29 JUMP JUMPDEST PUSH1 0x40 MLOAD DUP1 SWAP2 SUB SWAP1 RETURN JUMPDEST CALLVALUE DUP1 ISZERO PUSH2 0x210 JUMPI PUSH0 DUP1 REVERT JUMPDEST POP PUSH2 0x219 PUSH2 0xAAF JUMP JUMPDEST PUSH1 0x40 MLOAD PUSH2 0x226 SWAP2 SWAP1 PUSH2 0x16BC JUMP JUMPDEST PUSH1 0x40 MLOAD DUP1 SWAP2 SUB SWAP1 RETURN JUMPDEST CALLVALUE DUP1 ISZERO PUSH2 0x23A JUMPI PUSH0 DUP1 REVERT JUMPDEST POP PUSH2 0x243 PUSH2 0xABD JUMP JUMPDEST PUSH1 0x40 MLOAD PUSH2 0x250 SWAP2 SWAP1 PUSH2 0x16BC JUMP JUMPDEST PUSH1 0x40 MLOAD DUP1 SWAP2 SUB SWAP1 RETURN JUMPDEST CALLVALUE DUP1 ISZERO PUSH2 0x264 JUMPI PUSH0 DUP1 REVERT JUMPDEST POP PUSH2 0x27F PUSH1 0x4 DUP1 CALLDATASIZE SUB DUP2 ADD SWAP1 PUSH2 0x27A SWAP2 SWAP1 PUSH2 0x1AF2 JUMP JUMPDEST PUSH2 0xAC9 JUMP JUMPDEST PUSH1 0x40 MLOAD PUSH2 0x28D SWAP3 SWAP2 SWAP1 PUSH2 0x1BCD JUMP JUMPDEST PUSH1 0x40 MLOAD DUP1 SWAP2 SUB SWAP1 RETURN JUMPDEST CALLVALUE DUP1 ISZERO PUSH2 0x2A1 JUMPI PUSH0 DUP1 REVERT JUMPDEST POP PUSH2 0x2AA PUSH2 0xBAA JUMP JUMPDEST STOP JUMPDEST CALLVALUE DUP1 ISZERO PUSH2 0x2B7 JUMPI PUSH0 DUP1 REVERT JUMPDEST POP PUSH2 0x2D2 PUSH1 0x4 DUP1 CALLDATASIZE SUB DUP2 ADD SWAP1 PUSH2 0x2CD SWAP2 SWAP1 PUSH2 0x1BFB JUMP JUMPDEST PUSH2 0xD39 JUMP JUMPDEST PUSH1 0x40 MLOAD PUSH2 0x2DF SWAP2 SWAP1 PUSH2 0x16BC JUMP JUMPDEST PUSH1 0x40 MLOAD DUP1 SWAP2 SUB SWAP1 RETURN JUMPDEST CALLVALUE DUP1 ISZERO PUSH2 0x2F3 JUMPI PUSH0 DUP1 REVERT JUMPDEST POP PUSH2 0x2FC PUSH2 0xD59 JUMP JUMPDEST PUSH1 0x40 MLOAD PUSH2 0x309 SWAP2 SWAP1 PUSH2 0x1A29 JUMP JUMPDEST PUSH1 0x40 MLOAD DUP1 SWAP2 SUB SWAP1 RETURN JUMPDEST CALLVALUE DUP1 ISZERO PUSH2 0x31D JUMPI PUSH0 DUP1 REVERT JUMPDEST POP PUSH2 0x338 PUSH1 0x4 DUP1 CALLDATASIZE SUB DUP2 ADD SWAP1 PUSH2 0x333 SWAP2 SWAP1 PUSH2 0x1C50 JUMP JUMPDEST PUSH2 0xD80 JUMP JUMPDEST STOP JUMPDEST CALLVALUE DUP1 ISZERO PUSH2 0x345 JUMPI PUSH0 DUP1 REVERT JUMPDEST POP PUSH2 0x34E PUSH2 0xF5D JUMP JUMPDEST PUSH1 0x40 MLOAD PUSH2 0x35B SWAP2 SWAP1 PUSH2 0x16BC JUMP JUMPDEST PUSH1 0x40 MLOAD DUP1 SWAP2 SUB SWAP1 RETURN JUMPDEST CALLVALUE DUP1 ISZERO PUSH2 0x36F JUMPI PUSH0 DUP1 REVERT JUMPDEST POP PUSH2 0x378 PUSH2 0xF84 JUMP JUMPDEST PUSH1 0x40 MLOAD PUSH2 0x385 SWAP2 SWAP1 PUSH2 0x1CD6 JUMP JUMPDEST PUSH1 0x40 MLOAD DUP1 SWAP2 SUB SWAP1 RETURN JUMPDEST CALLVALUE DUP1 ISZERO PUSH2 0x399 JUMPI PUSH0 DUP1 REVERT JUMPDEST POP PUSH2 0x3B4 PUSH1 0x4 DUP1 CALLDATASIZE SUB DUP2 ADD SWAP1 PUSH2 0x3AF SWAP2 SWAP1 PUSH2 0x1BFB JUMP JUMPDEST PUSH2 0xFA9 JUMP JUMPDEST PUSH1 0x40 MLOAD PUSH2 0x3C2 SWAP3 SWAP2 SWAP1 PUSH2 0x1CEF JUMP JUMPDEST PUSH1 0x40 MLOAD DUP1 SWAP2 SUB SWAP1 RETURN JUMPDEST CALLVALUE DUP1 ISZERO PUSH2 0x3D6 JUMPI PUSH0 DUP1 REVERT JUMPDEST POP PUSH2 0x3DF PUSH2 0xFE1 JUMP JUMPDEST PUSH1 0x40 MLOAD PUSH2 0x3EC SWAP2 SWAP1 PUSH2 0x16BC JUMP JUMPDEST PUSH1 0x40 MLOAD DUP1 SWAP2 SUB SWAP1 RETURN JUMPDEST CALLVALUE DUP1 ISZERO PUSH2 0x400 JUMPI PUSH0 DUP1 REVERT JUMPDEST POP PUSH2 0x41B PUSH1 0x4 DUP1 CALLDATASIZE SUB DUP2 ADD SWAP1 PUSH2 0x416 SWAP2 SWAP1 PUSH2 0x1BFB JUMP JUMPDEST PUSH2 0xFEA JUMP JUMPDEST PUSH1 0x40 MLOAD PUSH2 0x428 SWAP2 SWAP1 PUSH2 0x1A29 JUMP JUMPDEST PUSH1 0x40 MLOAD DUP1 SWAP2 SUB SWAP1 RETURN JUMPDEST CALLVALUE DUP1 ISZERO PUSH2 0x43C JUMPI PUSH0 DUP1 REVERT JUMPDEST POP PUSH2 0x457 PUSH1 0x4 DUP1 CALLDATASIZE SUB DUP2 ADD SWAP1 PUSH2 0x452 SWAP2 SWAP1 PUSH2 0x1C50 JUMP JUMPDEST PUSH2 0x102E JUMP JUMPDEST STOP JUMPDEST CALLVALUE DUP1 ISZERO PUSH2 0x464 JUMPI PUSH0 DUP1 REVERT JUMPDEST POP PUSH2 0x46D PUSH2 0x1042 JUMP JUMPDEST PUSH1 0x40 MLOAD PUSH2 0x47A SWAP2 SWAP1 PUSH2 0x16BC JUMP JUMPDEST PUSH1 0x40 MLOAD DUP1 SWAP2 SUB SWAP1 RETURN JUMPDEST CALLVALUE DUP1 ISZERO PUSH2 0x48E JUMPI PUSH0 DUP1 REVERT JUMPDEST POP PUSH2 0x497 PUSH2 0x1048 JUMP JUMPDEST PUSH1 0x40 MLOAD PUSH2 0x4A4 SWAP2 SWAP1 PUSH2 0x16BC JUMP JUMPDEST PUSH1 0x40 MLOAD DUP1 SWAP2 SUB SWAP1 RETURN JUMPDEST PUSH0 PUSH32 0x0 SWAP1 POP SWAP1 JUMP JUMPDEST PUSH0 PUSH1 0x9 PUSH0 SWAP1 SLOAD SWAP1 PUSH2 0x100 EXP SWAP1 DIV PUSH1 0xFF AND SWAP1 POP SWAP1 JUMP JUMPDEST PUSH1 0x2 PUSH0 SWAP1 SLOAD SWAP1 PUSH2 0x100 EXP SWAP1 DIV PUSH20 0xFFFFFFFFFFFFFFFFFFFFFFFFFFFFFFFFFFFFFFFF AND PUSH20 0xFFFFFFFFFFFFFFFFFFFFFFFFFFFFFFFFFFFFFFFF AND CALLER PUSH20 0xFFFFFFFFFFFFFFFFFFFFFFFFFFFFFFFFFFFFFFFF AND EQ PUSH2 0x59D JUMPI CALLER PUSH1 0x2 PUSH0 SWAP1 SLOAD SWAP1 PUSH2 0x100 EXP SWAP1 DIV PUSH20 0xFFFFFFFFFFFFFFFFFFFFFFFFFFFFFFFFFFFFFFFF AND PUSH1 0x40 MLOAD PUSH32 0x1CF993F400000000000000000000000000000000000000000000000000000000 DUP2 MSTORE PUSH1 0x4 ADD PUSH2 0x594 SWAP3 SWAP2 SWAP1 PUSH2 0x1D16 JUMP JUMPDEST PUSH1 0x40 MLOAD DUP1 SWAP2 SUB SWAP1 REVERT JUMPDEST PUSH2 0x5A7 DUP3 DUP3 PUSH2 0x1054 JUMP JUMPDEST POP POP JUMP JUMPDEST PUSH32 0x0 CALLVALUE LT ISZERO PUSH2 0x605 JUMPI PUSH1 0x40 MLOAD PUSH32 0x3038C00A00000000000000000000000000000000000000000000000000000000 DUP2 MSTORE PUSH1 0x4 ADD PUSH1 0x40 MLOAD DUP1 SWAP2 SUB SWAP1 REVERT JUMPDEST PUSH0 PUSH1 0x1 DUP2 GT ISZERO PUSH2 0x618 JUMPI PUSH2 0x617 PUSH2 0x16D5 JUMP JUMPDEST JUMPDEST PUSH1 0x9 PUSH0 SWAP1 SLOAD SWAP1 PUSH2 0x100 EXP SWAP1 DIV PUSH1 0xFF AND PUSH1 0x1 DUP2 GT ISZERO PUSH2 0x639 JUMPI PUSH2 0x638 PUSH2 0x16D5 JUMP JUMPDEST JUMPDEST EQ PUSH2 0x670 JUMPI PUSH1 0x40 MLOAD PUSH32 0xD24A271400000000000000000000000000000000000000000000000000000000 DUP2 MSTORE PUSH1 0x4 ADD PUSH1 0x40 MLOAD DUP1 SWAP2 SUB SWAP1 REVERT JUMPDEST PUSH1 0x8 CALLER SWAP1 DUP1 PUSH1 0x1 DUP2 SLOAD ADD DUP1 DUP3 SSTORE DUP1 SWAP2 POP POP PUSH1 0x1 SWAP1 SUB SWAP1 PUSH0 MSTORE PUSH1 0x20 PUSH0 KECCAK256 ADD PUSH0 SWAP1 SWAP2 SWAP1 SWAP2 SWAP1 SWAP2 PUSH2 0x100 EXP DUP2 SLOAD DUP2 PUSH20 0xFFFFFFFFFFFFFFFFFFFFFFFFFFFFFFFFFFFFFFFF MUL NOT AND SWAP1 DUP4 PUSH20 0xFFFFFFFFFFFFFFFFFFFFFFFFFFFFFFFFFFFFFFFF AND MUL OR SWAP1 SSTORE POP CALLER PUSH20 0xFFFFFFFFFFFFFFFFFFFFFFFFFFFFFFFFFFFFFFFF AND PUSH32 0x805E1D667BDDB8A95F0F09880CF94F403FB596CE79928D9F29B74203BA284D4 PUSH1 0x40 MLOAD PUSH1 0x40 MLOAD DUP1 SWAP2 SUB SWAP1 LOG2 JUMP JUMPDEST PUSH0 PUSH2 0x72D PUSH1 0x40 MLOAD DUP1 PUSH1 0x20 ADD PUSH1 0x40 MSTORE DUP1 PUSH0 DUP2 MSTORE POP PUSH2 0xAC9 JUMP JUMPDEST POP SWAP1 POP DUP1 PUSH2 0x79B JUMPI SELFBALANCE PUSH1 0x8 DUP1 SLOAD SWAP1 POP PUSH1 0x9 PUSH0 SWAP1 SLOAD SWAP1 PUSH2 0x100 EXP SWAP1 DIV PUSH1 0xFF AND PUSH1 0x1 DUP2 GT ISZERO PUSH2 0x75D JUMPI PUSH2 0x75C PUSH2 0x16D5 JUMP JUMPDEST JUMPDEST PUSH1 0x40 MLOAD PUSH32 0x584327AA00000000000000000000000000000000000000000000000000000000 DUP2 MSTORE PUSH1 0x4 ADD PUSH2 0x792 SWAP4 SWAP3 SWAP2 SWAP1 PUSH2 0x1D3D JUMP JUMPDEST PUSH1 0x40 MLOAD DUP1 SWAP2 SUB SWAP1 REVERT JUMPDEST PUSH1 0x1 PUSH1 0x9 PUSH0 PUSH2 0x100 EXP DUP2 SLOAD DUP2 PUSH1 0xFF MUL NOT AND SWAP1 DUP4 PUSH1 0x1 DUP2 GT ISZERO PUSH2 0x7C0 JUMPI PUSH2 0x7BF PUSH2 0x16D5 JUMP JUMPDEST JUMPDEST MUL OR SWAP1 SSTORE POP PUSH0 PUSH1 0x2 PUSH0 SWAP1 SLOAD SWAP1 PUSH2 0x100 EXP SWAP1 DIV PUSH20 0xFFFFFFFFFFFFFFFFFFFFFFFFFFFFFFFFFFFFFFFF AND PUSH20 0xFFFFFFFFFFFFFFFFFFFFFFFFFFFFFFFFFFFFFFFF AND PUSH4 0x9B1C385E PUSH1 0x40 MLOAD DUP1 PUSH1 0xC0 ADD PUSH1 0x40 MSTORE DUP1 PUSH32 0x0 DUP2 MSTORE PUSH1 0x20 ADD PUSH32 0x0 DUP2 MSTORE PUSH1 0x20 ADD PUSH1 0x3 PUSH2 0xFFFF AND DUP2 MSTORE PUSH1 0x20 ADD PUSH32 0x0 PUSH4 0xFFFFFFFF AND DUP2 MSTORE PUSH1 0x20 ADD PUSH1 0x1 PUSH4 0xFFFFFFFF AND DUP2 MSTORE PUSH1 0x20 ADD PUSH2 0x8B7 PUSH1 0x40 MLOAD DUP1 PUSH1 0x20 ADD PUSH1 0x40 MSTORE DUP1 PUSH0 ISZERO ISZERO DUP2 MSTORE POP PUSH2 0x1366 JUMP JUMPDEST DUP2 MSTORE POP PUSH1 0x40 MLOAD DUP3 PUSH4 0xFFFFFFFF AND PUSH1 0xE0 SHL DUP2 MSTORE PUSH1 0x4 ADD PUSH2 0x8D6 SWAP2 SWAP1 PUSH2 0x1EA1 JUMP JUMPDEST PUSH1 0x20 PUSH1 0x40 MLOAD DUP1 DUP4 SUB DUP2 PUSH0 DUP8 GAS CALL ISZERO DUP1 ISZERO PUSH2 0x8F2 JUMPI RETURNDATASIZE PUSH0 DUP1 RETURNDATACOPY RETURNDATASIZE PUSH0 REVERT JUMPDEST POP POP POP POP PUSH1 0x40 MLOAD RETURNDATASIZE PUSH1 0x1F NOT PUSH1 0x1F DUP3 ADD AND DUP3 ADD DUP1 PUSH1 0x40 MSTORE POP DUP2 ADD SWAP1 PUSH2 0x916 SWAP2 SWAP1 PUSH2 0x1ED5 JUMP JUMPDEST SWAP1 POP PUSH1 0x40 MLOAD DUP1 PUSH1 0x60 ADD PUSH1 0x40 MSTORE DUP1 PUSH0 ISZERO ISZERO DUP2 MSTORE PUSH1 0x20 ADD PUSH1 0x1 ISZERO ISZERO DUP2 MSTORE PUSH1 0x20 ADD PUSH0 PUSH8 0xFFFFFFFFFFFFFFFF DUP2 GT ISZERO PUSH2 0x94E JUMPI PUSH2 0x94D PUSH2 0x17B0 JUMP JUMPDEST JUMPDEST PUSH1 0x40 MLOAD SWAP1 DUP1 DUP3 MSTORE DUP1 PUSH1 0x20 MUL PUSH1 0x20 ADD DUP3 ADD PUSH1 0x40 MSTORE DUP1 ISZERO PUSH2 0x97C JUMPI DUP2 PUSH1 0x20 ADD PUSH1 0x20 DUP3 MUL DUP1 CALLDATASIZE DUP4 CALLDATACOPY DUP1 DUP3 ADD SWAP2 POP POP SWAP1 POP JUMPDEST POP DUP2 MSTORE POP PUSH1 0x3 PUSH0 DUP4 DUP2 MSTORE PUSH1 0x20 ADD SWAP1 DUP2 MSTORE PUSH1 0x20 ADD PUSH0 KECCAK256 PUSH0 DUP3 ADD MLOAD DUP2 PUSH0 ADD PUSH0 PUSH2 0x100 EXP DUP2 SLOAD DUP2 PUSH1 0xFF MUL NOT AND SWAP1 DUP4 ISZERO ISZERO MUL OR SWAP1 SSTORE POP PUSH1 0x20 DUP3 ADD MLOAD DUP2 PUSH0 ADD PUSH1 0x1 PUSH2 0x100 EXP DUP2 SLOAD DUP2 PUSH1 0xFF MUL NOT AND SWAP1 DUP4 ISZERO ISZERO MUL OR SWAP1 SSTORE POP PUSH1 0x40 DUP3 ADD MLOAD DUP2 PUSH1 0x1 ADD SWAP1 DUP1 MLOAD SWAP1 PUSH1 0x20 ADD SWAP1 PUSH2 0x9E9 SWAP3 SWAP2 SWAP1 PUSH2 0x15B7 JUMP JUMPDEST POP SWAP1 POP POP PUSH1 0x4 DUP2 SWAP1 DUP1 PUSH1 0x1 DUP2 SLOAD ADD DUP1 DUP3 SSTORE DUP1 SWAP2 POP POP PUSH1 0x1 SWAP1 SUB SWAP1 PUSH0 MSTORE PUSH1 0x20 PUSH0 KECCAK256 ADD PUSH0 SWAP1 SWAP2 SWAP1 SWAP2 SWAP1 SWAP2 POP SSTORE DUP1 PUSH1 0x5 DUP2 SWAP1 SSTORE POP PUSH32 0xCC58B13AD3EAB50626C6A6300B1D139CD6EBB1688A7CCED9461C2F7E762665EE DUP2 PUSH1 0x1 PUSH1 0x40 MLOAD PUSH2 0xA4C SWAP3 SWAP2 SWAP1 PUSH2 0x1F0F JUMP JUMPDEST PUSH1 0x40 MLOAD DUP1 SWAP2 SUB SWAP1 LOG1 DUP1 PUSH32 0xCD6E45C8998311CAB7E9D4385596CAC867E20A0587194B954FA3A731C93CE78B PUSH1 0x40 MLOAD PUSH1 0x40 MLOAD DUP1 SWAP2 SUB SWAP1 LOG2 POP POP POP POP JUMP JUMPDEST PUSH0 PUSH1 0x7 PUSH0 SWAP1 SLOAD SWAP1 PUSH2 0x100 EXP SWAP1 DIV PUSH20 0xFFFFFFFFFFFFFFFFFFFFFFFFFFFFFFFFFFFFFFFF AND SWAP1 POP SWAP1 JUMP JUMPDEST PUSH0 PUSH1 0x1 PUSH4 0xFFFFFFFF AND SWAP1 POP SWAP1 JUMP JUMPDEST PUSH0 PUSH1 0x3 PUSH2 0xFFFF AND SWAP1 POP SWAP1 JUMP JUMPDEST PUSH0 PUSH1 0x60 PUSH0 PUSH1 0x9 PUSH0 SWAP1 SLOAD SWAP1 PUSH2 0x100 EXP SWAP1 DIV PUSH1 0xFF AND PUSH1 0x1 DUP2 GT ISZERO PUSH2 0xAEE JUMPI PUSH2 0xAED PUSH2 0x16D5 JUMP JUMPDEST JUMPDEST PUSH0 PUSH1 0x1 DUP2 GT ISZERO PUSH2 0xB01 JUMPI PUSH2 0xB00 PUSH2 0x16D5 JUMP JUMPDEST JUMPDEST EQ SWAP1 POP PUSH0 PUSH32 0x0 PUSH1 0x6 SLOAD TIMESTAMP PUSH2 0xB34 SWAP2 SWAP1 PUSH2 0x1F63 JUMP JUMPDEST GT SWAP1 POP PUSH0 DUP1 PUSH1 0x8 DUP1 SLOAD SWAP1 POP GT SWAP1 POP PUSH0 DUP1 SELFBALANCE GT SWAP1 POP DUP3 DUP1 ISZERO PUSH2 0xB52 JUMPI POP DUP4 JUMPDEST DUP1 ISZERO PUSH2 0xB5B JUMPI POP DUP1 JUMPDEST DUP1 ISZERO PUSH2 0xB64 JUMPI POP DUP2 JUMPDEST SWAP6 POP DUP6 PUSH1 0x40 MLOAD DUP1 PUSH1 0x40 ADD PUSH1 0x40 MSTORE DUP1 PUSH1 0x3 DUP2 MSTORE PUSH1 0x20 ADD PUSH32 0x3078300000000000000000000000000000000000000000000000000000000000 DUP2 MSTORE POP SWAP6 POP SWAP6 POP POP POP POP POP SWAP2 POP SWAP2 JUMP JUMPDEST PUSH1 0x1 PUSH0 SWAP1 SLOAD SWAP1 PUSH2 0x100 EXP SWAP1 DIV PUSH20 0xFFFFFFFFFFFFFFFFFFFFFFFFFFFFFFFFFFFFFFFF AND PUSH20 0xFFFFFFFFFFFFFFFFFFFFFFFFFFFFFFFFFFFFFFFF AND CALLER PUSH20 0xFFFFFFFFFFFFFFFFFFFFFFFFFFFFFFFFFFFFFFFF AND EQ PUSH2 0xC39 JUMPI PUSH1 0x40 MLOAD PUSH32 0x8C379A000000000000000000000000000000000000000000000000000000000 DUP2 MSTORE PUSH1 0x4 ADD PUSH2 0xC30 SWAP1 PUSH2 0x1FF0 JUMP JUMPDEST PUSH1 0x40 MLOAD DUP1 SWAP2 SUB SWAP1 REVERT JUMPDEST PUSH0 DUP1 PUSH0 SWAP1 SLOAD SWAP1 PUSH2 0x100 EXP SWAP1 DIV PUSH20 0xFFFFFFFFFFFFFFFFFFFFFFFFFFFFFFFFFFFFFFFF AND SWAP1 POP CALLER PUSH0 DUP1 PUSH2 0x100 EXP DUP2 SLOAD DUP2 PUSH20 0xFFFFFFFFFFFFFFFFFFFFFFFFFFFFFFFFFFFFFFFF MUL NOT AND SWAP1 DUP4 PUSH20 0xFFFFFFFFFFFFFFFFFFFFFFFFFFFFFFFFFFFFFFFF AND MUL OR SWAP1 SSTORE POP PUSH0 PUSH1 0x1 PUSH0 PUSH2 0x100 EXP DUP2 SLOAD DUP2 PUSH20 0xFFFFFFFFFFFFFFFFFFFFFFFFFFFFFFFFFFFFFFFF MUL NOT AND SWAP1 DUP4 PUSH20 0xFFFFFFFFFFFFFFFFFFFFFFFFFFFFFFFFFFFFFFFF AND MUL OR SWAP1 SSTORE POP CALLER PUSH20 0xFFFFFFFFFFFFFFFFFFFFFFFFFFFFFFFFFFFFFFFF AND DUP2 PUSH20 0xFFFFFFFFFFFFFFFFFFFFFFFFFFFFFFFFFFFFFFFF AND PUSH32 0x8BE0079C531659141344CD1FD0A4F28419497F9722A3DAAFE3B4186F6B6457E0 PUSH1 0x40 MLOAD PUSH1 0x40 MLOAD DUP1 SWAP2 SUB SWAP1 LOG3 POP JUMP JUMPDEST PUSH1 0x4 DUP2 DUP2 SLOAD DUP2 LT PUSH2 0xD48 JUMPI PUSH0 DUP1 REVERT JUMPDEST SWAP1 PUSH0 MSTORE PUSH1 0x20 PUSH0 KECCAK256 ADD PUSH0 SWAP2 POP SWAP1 POP SLOAD DUP2 JUMP JUMPDEST PUSH0 DUP1 PUSH0 SWAP1 SLOAD SWAP1 PUSH2 0x100 EXP SWAP1 DIV PUSH20 0xFFFFFFFFFFFFFFFFFFFFFFFFFFFFFFFFFFFFFFFF AND SWAP1 POP SWAP1 JUMP JUMPDEST PUSH2 0xD88 PUSH2 0xD59 JUMP JUMPDEST PUSH20 0xFFFFFFFFFFFFFFFFFFFFFFFFFFFFFFFFFFFFFFFF AND CALLER PUSH20 0xFFFFFFFFFFFFFFFFFFFFFFFFFFFFFFFFFFFFFFFF AND EQ ISZERO DUP1 ISZERO PUSH2 0xE10 JUMPI POP PUSH1 0x2 PUSH0 SWAP1 SLOAD SWAP1 PUSH2 0x100 EXP SWAP1 DIV PUSH20 0xFFFFFFFFFFFFFFFFFFFFFFFFFFFFFFFFFFFFFFFF AND PUSH20 0xFFFFFFFFFFFFFFFFFFFFFFFFFFFFFFFFFFFFFFFF AND CALLER PUSH20 0xFFFFFFFFFFFFFFFFFFFFFFFFFFFFFFFFFFFFFFFF AND EQ ISZERO JUMPDEST ISZERO PUSH2 0xE7E JUMPI CALLER PUSH2 0xE1E PUSH2 0xD59 JUMP JUMPDEST PUSH1 0x2 PUSH0 SWAP1 SLOAD SWAP1 PUSH2 0x100 EXP SWAP1 DIV PUSH20 0xFFFFFFFFFFFFFFFFFFFFFFFFFFFFFFFFFFFFFFFF AND PUSH1 0x40 MLOAD PUSH32 0x61DB9C100000000000000000000000000000000000000000000000000000000 DUP2 MSTORE PUSH1 0x4 ADD PUSH2 0xE75 SWAP4 SWAP3 SWAP2 SWAP1 PUSH2 0x200E JUMP JUMPDEST PUSH1 0x40 MLOAD DUP1 SWAP2 SUB SWAP1 REVERT JUMPDEST PUSH0 PUSH20 0xFFFFFFFFFFFFFFFFFFFFFFFFFFFFFFFFFFFFFFFF AND DUP2 PUSH20 0xFFFFFFFFFFFFFFFFFFFFFFFFFFFFFFFFFFFFFFFF AND SUB PUSH2 0xEE3 JUMPI PUSH1 0x40 MLOAD PUSH32 0xD92E233D00000000000000000000000000000000000000000000000000000000 DUP2 MSTORE PUSH1 0x4 ADD PUSH1 0x40 MLOAD DUP1 SWAP2 SUB SWAP1 REVERT JUMPDEST DUP1 PUSH1 0x2 PUSH0 PUSH2 0x100 EXP DUP2 SLOAD DUP2 PUSH20 0xFFFFFFFFFFFFFFFFFFFFFFFFFFFFFFFFFFFFFFFF MUL NOT AND SWAP1 DUP4 PUSH20 0xFFFFFFFFFFFFFFFFFFFFFFFFFFFFFFFFFFFFFFFF AND MUL OR SWAP1 SSTORE POP PUSH32 0xD1A6A14209A385A964D036E404CB5CFB71F4000CDB03C9366292430787261BE6 DUP2 PUSH1 0x40 MLOAD PUSH2 0xF52 SWAP2 SWAP1 PUSH2 0x1A29 JUMP JUMPDEST PUSH1 0x40 MLOAD DUP1 SWAP2 SUB SWAP1 LOG1 POP JUMP JUMPDEST PUSH0 PUSH32 0x0 SWAP1 POP SWAP1 JUMP JUMPDEST PUSH1 0x2 PUSH0 SWAP1 SLOAD SWAP1 PUSH2 0x100 EXP SWAP1 DIV PUSH20 0xFFFFFFFFFFFFFFFFFFFFFFFFFFFFFFFFFFFFFFFF AND DUP2 JUMP JUMPDEST PUSH1 0x3 PUSH1 0x20 MSTORE DUP1 PUSH0 MSTORE PUSH1 0x40 PUSH0 KECCAK256 PUSH0 SWAP2 POP SWAP1 POP DUP1 PUSH0 ADD PUSH0 SWAP1 SLOAD SWAP1 PUSH2 0x100 EXP SWAP1 DIV PUSH1 0xFF AND SWAP1 DUP1 PUSH0 ADD PUSH1 0x1 SWAP1 SLOAD SWAP1 PUSH2 0x100 EXP SWAP1 DIV PUSH1 0xFF AND SWAP1 POP DUP3 JUMP JUMPDEST PUSH0 PUSH1 0x6 SLOAD SWAP1 POP SWAP1 JUMP JUMPDEST PUSH0 PUSH1 0x8 DUP3 DUP2 SLOAD DUP2 LT PUSH2 0xFFF JUMPI PUSH2 0xFFE PUSH2 0x2043 JUMP JUMPDEST JUMPDEST SWAP1 PUSH0 MSTORE PUSH1 0x20 PUSH0 KECCAK256 ADD PUSH0 SWAP1 SLOAD SWAP1 PUSH2 0x100 EXP SWAP1 DIV PUSH20 0xFFFFFFFFFFFFFFFFFFFFFFFFFFFFFFFFFFFFFFFF AND SWAP1 POP SWAP2 SWAP1 POP JUMP JUMPDEST PUSH2 0x1036 PUSH2 0x13FE JUMP JUMPDEST PUSH2 0x103F DUP2 PUSH2 0x148D JUMP JUMPDEST POP JUMP JUMPDEST PUSH1 0x5 SLOAD DUP2 JUMP JUMPDEST PUSH0 PUSH1 0x8 DUP1 SLOAD SWAP1 POP SWAP1 POP SWAP1 JUMP JUMPDEST PUSH1 0x3 PUSH0 DUP4 DUP2 MSTORE PUSH1 0x20 ADD SWAP1 DUP2 MSTORE PUSH1 0x20 ADD PUSH0 KECCAK256 PUSH0 ADD PUSH1 0x1 SWAP1 SLOAD SWAP1 PUSH2 0x100 EXP SWAP1 DIV PUSH1 0xFF AND PUSH2 0x10B4 JUMPI PUSH1 0x40 MLOAD PUSH32 0x8C379A000000000000000000000000000000000000000000000000000000000 DUP2 MSTORE PUSH1 0x4 ADD PUSH2 0x10AB SWAP1 PUSH2 0x20BA JUMP JUMPDEST PUSH1 0x40 MLOAD DUP1 SWAP2 SUB SWAP1 REVERT JUMPDEST PUSH1 0x1 PUSH1 0x3 PUSH0 DUP5 DUP2 MSTORE PUSH1 0x20 ADD SWAP1 DUP2 MSTORE PUSH1 0x20 ADD PUSH0 KECCAK256 PUSH0 ADD PUSH0 PUSH2 0x100 EXP DUP2 SLOAD DUP2 PUSH1 0xFF MUL NOT AND SWAP1 DUP4 ISZERO ISZERO MUL OR SWAP1 SSTORE POP DUP1 PUSH1 0x3 PUSH0 DUP5 DUP2 MSTORE PUSH1 0x20 ADD SWAP1 DUP2 MSTORE PUSH1 0x20 ADD PUSH0 KECCAK256 PUSH1 0x1 ADD SWAP1 DUP1 MLOAD SWAP1 PUSH1 0x20 ADD SWAP1 PUSH2 0x1107 SWAP3 SWAP2 SWAP1 PUSH2 0x15B7 JUMP JUMPDEST POP PUSH32 0xFE2E2D779DBA245964D4E3EF9B994BE63856FD568BF7D3CA9E224755CB1BD54D DUP3 DUP3 PUSH1 0x40 MLOAD PUSH2 0x1139 SWAP3 SWAP2 SWAP1 PUSH2 0x2180 JUMP JUMPDEST PUSH1 0x40 MLOAD DUP1 SWAP2 SUB SWAP1 LOG1 PUSH0 PUSH1 0x8 DUP1 SLOAD SWAP1 POP DUP3 PUSH0 DUP2 MLOAD DUP2 LT PUSH2 0x115B JUMPI PUSH2 0x115A PUSH2 0x2043 JUMP JUMPDEST JUMPDEST PUSH1 0x20 MUL PUSH1 0x20 ADD ADD MLOAD PUSH2 0x116D SWAP2 SWAP1 PUSH2 0x21DB JUMP JUMPDEST SWAP1 POP PUSH0 PUSH1 0x8 DUP3 DUP2 SLOAD DUP2 LT PUSH2 0x1184 JUMPI PUSH2 0x1183 PUSH2 0x2043 JUMP JUMPDEST JUMPDEST SWAP1 PUSH0 MSTORE PUSH1 0x20 PUSH0 KECCAK256 ADD PUSH0 SWAP1 SLOAD SWAP1 PUSH2 0x100 EXP SWAP1 DIV PUSH20 0xFFFFFFFFFFFFFFFFFFFFFFFFFFFFFFFFFFFFFFFF AND SWAP1 POP DUP1 PUSH1 0x7 PUSH0 PUSH2 0x100 EXP DUP2 SLOAD DUP2 PUSH20 0xFFFFFFFFFFFFFFFFFFFFFFFFFFFFFFFFFFFFFFFF MUL NOT AND SWAP1 DUP4 PUSH20 0xFFFFFFFFFFFFFFFFFFFFFFFFFFFFFFFFFFFFFFFF AND MUL OR SWAP1 SSTORE POP PUSH0 PUSH8 0xFFFFFFFFFFFFFFFF DUP2 GT ISZERO PUSH2 0x1208 JUMPI PUSH2 0x1207 PUSH2 0x17B0 JUMP JUMPDEST JUMPDEST PUSH1 0x40 MLOAD SWAP1 DUP1 DUP3 MSTORE DUP1 PUSH1 0x20 MUL PUSH1 0x20 ADD DUP3 ADD PUSH1 0x40 MSTORE DUP1 ISZERO PUSH2 0x1236 JUMPI DUP2 PUSH1 0x20 ADD PUSH1 0x20 DUP3 MUL DUP1 CALLDATASIZE DUP4 CALLDATACOPY DUP1 DUP3 ADD SWAP2 POP POP SWAP1 POP JUMPDEST POP PUSH1 0x8 SWAP1 DUP1 MLOAD SWAP1 PUSH1 0x20 ADD SWAP1 PUSH2 0x124C SWAP3 SWAP2 SWAP1 PUSH2 0x1602 JUMP JUMPDEST POP PUSH0 PUSH1 0x9 PUSH0 PUSH2 0x100 EXP DUP2 SLOAD DUP2 PUSH1 0xFF MUL NOT AND SWAP1 DUP4 PUSH1 0x1 DUP2 GT ISZERO PUSH2 0x1271 JUMPI PUSH2 0x1270 PUSH2 0x16D5 JUMP JUMPDEST JUMPDEST MUL OR SWAP1 SSTORE POP TIMESTAMP PUSH1 0x6 DUP2 SWAP1 SSTORE POP DUP1 PUSH20 0xFFFFFFFFFFFFFFFFFFFFFFFFFFFFFFFFFFFFFFFF AND PUSH32 0x5B690EC4A06FE979403046EAEEA5B3CE38524683C3001F662C8B5A829632F7DF PUSH1 0x40 MLOAD PUSH1 0x40 MLOAD DUP1 SWAP2 SUB SWAP1 LOG2 PUSH0 DUP2 PUSH20 0xFFFFFFFFFFFFFFFFFFFFFFFFFFFFFFFFFFFFFFFF AND SELFBALANCE PUSH1 0x40 MLOAD PUSH2 0x12E5 SWAP1 PUSH2 0x2238 JUMP JUMPDEST PUSH0 PUSH1 0x40 MLOAD DUP1 DUP4 SUB DUP2 DUP6 DUP8 GAS CALL SWAP3 POP POP POP RETURNDATASIZE DUP1 PUSH0 DUP2 EQ PUSH2 0x131F JUMPI PUSH1 0x40 MLOAD SWAP2 POP PUSH1 0x1F NOT PUSH1 0x3F RETURNDATASIZE ADD AND DUP3 ADD PUSH1 0x40 MSTORE RETURNDATASIZE DUP3 MSTORE RETURNDATASIZE PUSH0 PUSH1 0x20 DUP5 ADD RETURNDATACOPY PUSH2 0x1324 JUMP JUMPDEST PUSH1 0x60 SWAP2 POP JUMPDEST POP POP SWAP1 POP DUP1 PUSH2 0x135F JUMPI PUSH1 0x40 MLOAD PUSH32 0xA1D04B3900000000000000000000000000000000000000000000000000000000 DUP2 MSTORE PUSH1 0x4 ADD PUSH1 0x40 MLOAD DUP1 SWAP2 SUB SWAP1 REVERT JUMPDEST POP POP POP POP POP JUMP JUMPDEST PUSH1 0x60 PUSH32 0x92FD13387C7FE7BEFBC38D303D6468778FB9731BC4583F17D92989C6FCFDEAAA DUP3 PUSH1 0x40 MLOAD PUSH1 0x24 ADD PUSH2 0x139A SWAP2 SWAP1 PUSH2 0x2275 JUMP JUMPDEST PUSH1 0x40 MLOAD PUSH1 0x20 DUP2 DUP4 SUB SUB DUP2 MSTORE SWAP1 PUSH1 0x40 MSTORE SWAP1 PUSH28 0xFFFFFFFFFFFFFFFFFFFFFFFFFFFFFFFFFFFFFFFFFFFFFFFFFFFFFFFF NOT AND PUSH1 0x20 DUP3 ADD DUP1 MLOAD PUSH28 0xFFFFFFFFFFFFFFFFFFFFFFFFFFFFFFFFFFFFFFFFFFFFFFFFFFFFFFFF DUP4 DUP2 DUP4 AND OR DUP4 MSTORE POP POP POP POP SWAP1 POP SWAP2 SWAP1 POP JUMP JUMPDEST PUSH0 DUP1 SLOAD SWAP1 PUSH2 0x100 EXP SWAP1 DIV PUSH20 0xFFFFFFFFFFFFFFFFFFFFFFFFFFFFFFFFFFFFFFFF AND PUSH20 0xFFFFFFFFFFFFFFFFFFFFFFFFFFFFFFFFFFFFFFFF AND CALLER PUSH20 0xFFFFFFFFFFFFFFFFFFFFFFFFFFFFFFFFFFFFFFFF AND EQ PUSH2 0x148B JUMPI PUSH1 0x40 MLOAD PUSH32 0x8C379A000000000000000000000000000000000000000000000000000000000 DUP2 MSTORE PUSH1 0x4 ADD PUSH2 0x1482 SWAP1 PUSH2 0x22D8 JUMP JUMPDEST PUSH1 0x40 MLOAD DUP1 SWAP2 SUB SWAP1 REVERT JUMPDEST JUMP JUMPDEST CALLER PUSH20 0xFFFFFFFFFFFFFFFFFFFFFFFFFFFFFFFFFFFFFFFF AND DUP2 PUSH20 0xFFFFFFFFFFFFFFFFFFFFFFFFFFFFFFFFFFFFFFFF AND SUB PUSH2 0x14FB JUMPI PUSH1 0x40 MLOAD PUSH32 0x8C379A000000000000000000000000000000000000000000000000000000000 DUP2 MSTORE PUSH1 0x4 ADD PUSH2 0x14F2 SWAP1 PUSH2 0x2340 JUMP JUMPDEST PUSH1 0x40 MLOAD DUP1 SWAP2 SUB SWAP1 REVERT JUMPDEST DUP1 PUSH1 0x1 PUSH0 PUSH2 0x100 EXP DUP2 SLOAD DUP2 PUSH20 0xFFFFFFFFFFFFFFFFFFFFFFFFFFFFFFFFFFFFFFFF MUL NOT AND SWAP1 DUP4 PUSH20 0xFFFFFFFFFFFFFFFFFFFFFFFFFFFFFFFFFFFFFFFF AND MUL OR SWAP1 SSTORE POP DUP1 PUSH20 0xFFFFFFFFFFFFFFFFFFFFFFFFFFFFFFFFFFFFFFFF AND PUSH0 DUP1 SLOAD SWAP1 PUSH2 0x100 EXP SWAP1 DIV PUSH20 0xFFFFFFFFFFFFFFFFFFFFFFFFFFFFFFFFFFFFFFFF AND PUSH20 0xFFFFFFFFFFFFFFFFFFFFFFFFFFFFFFFFFFFFFFFF AND PUSH32 0xED8889F560326EB138920D842192F0EB3DD22B4F139C87A2C57538E05BAE1278 PUSH1 0x40 MLOAD PUSH1 0x40 MLOAD DUP1 SWAP2 SUB SWAP1 LOG3 POP JUMP JUMPDEST DUP3 DUP1 SLOAD DUP3 DUP3 SSTORE SWAP1 PUSH0 MSTORE PUSH1 0x20 PUSH0 KECCAK256 SWAP1 DUP2 ADD SWAP3 DUP3 ISZERO PUSH2 0x15F1 JUMPI SWAP2 PUSH1 0x20 MUL DUP3 ADD JUMPDEST DUP3 DUP2 GT ISZERO PUSH2 0x15F0 JUMPI DUP3 MLOAD DUP3 SSTORE SWAP2 PUSH1 0x20 ADD SWAP2 SWAP1 PUSH1 0x1 ADD SWAP1 PUSH2 0x15D5 JUMP JUMPDEST JUMPDEST POP SWAP1 POP PUSH2 0x15FE SWAP2 SWAP1 PUSH2 0x1689 JUMP JUMPDEST POP SWAP1 JUMP JUMPDEST DUP3 DUP1 SLOAD DUP3 DUP3 SSTORE SWAP1 PUSH0 MSTORE PUSH1 0x20 PUSH0 KECCAK256 SWAP1 DUP2 ADD SWAP3 DUP3 ISZERO PUSH2 0x1678 JUMPI SWAP2 PUSH1 0x20 MUL DUP3 ADD JUMPDEST DUP3 DUP2 GT ISZERO PUSH2 0x1677 JUMPI DUP3 MLOAD DUP3 PUSH0 PUSH2 0x100 EXP DUP2 SLOAD DUP2 PUSH20 0xFFFFFFFFFFFFFFFFFFFFFFFFFFFFFFFFFFFFFFFF MUL NOT AND SWAP1 DUP4 PUSH20 0xFFFFFFFFFFFFFFFFFFFFFFFFFFFFFFFFFFFFFFFF AND MUL OR SWAP1 SSTORE POP SWAP2 PUSH1 0x20 ADD SWAP2 SWAP1 PUSH1 0x1 ADD SWAP1 PUSH2 0x1620 JUMP JUMPDEST JUMPDEST POP SWAP1 POP PUSH2 0x1685 SWAP2 SWAP1 PUSH2 0x1689 JUMP JUMPDEST POP SWAP1 JUMP JUMPDEST JUMPDEST DUP1 DUP3 GT ISZERO PUSH2 0x16A0 JUMPI PUSH0 DUP2 PUSH0 SWAP1 SSTORE POP PUSH1 0x1 ADD PUSH2 0x168A JUMP JUMPDEST POP SWAP1 JUMP JUMPDEST PUSH0 DUP2 SWAP1 POP SWAP2 SWAP1 POP JUMP JUMPDEST PUSH2 0x16B6 DUP2 PUSH2 0x16A4 JUMP JUMPDEST DUP3 MSTORE POP POP JUMP JUMPDEST PUSH0 PUSH1 0x20 DUP3 ADD SWAP1 POP PUSH2 0x16CF PUSH0 DUP4 ADD DUP5 PUSH2 0x16AD JUMP JUMPDEST SWAP3 SWAP2 POP POP JUMP JUMPDEST PUSH32 0x4E487B7100000000000000000000000000000000000000000000000000000000 PUSH0 MSTORE PUSH1 0x21 PUSH1 0x4 MSTORE PUSH1 0x24 PUSH0 REVERT JUMPDEST PUSH1 0x2 DUP2 LT PUSH2 0x1713 JUMPI PUSH2 0x1712 PUSH2 0x16D5 JUMP JUMPDEST JUMPDEST POP JUMP JUMPDEST PUSH0 DUP2 SWAP1 POP PUSH2 0x1723 DUP3 PUSH2 0x1702 JUMP JUMPDEST SWAP2 SWAP1 POP JUMP JUMPDEST PUSH0 PUSH2 0x1732 DUP3 PUSH2 0x1716 JUMP JUMPDEST SWAP1 POP SWAP2 SWAP1 POP JUMP JUMPDEST PUSH2 0x1742 DUP2 PUSH2 0x1728 JUMP JUMPDEST DUP3 MSTORE POP POP JUMP JUMPDEST PUSH0 PUSH1 0x20 DUP3 ADD SWAP1 POP PUSH2 0x175B PUSH0 DUP4 ADD DUP5 PUSH2 0x1739 JUMP JUMPDEST SWAP3 SWAP2 POP POP JUMP JUMPDEST PUSH0 PUSH1 0x40 MLOAD SWAP1 POP SWAP1 JUMP JUMPDEST PUSH0 DUP1 REVERT JUMPDEST PUSH0 DUP1 REVERT JUMPDEST PUSH2 0x177B DUP2 PUSH2 0x16A4 JUMP JUMPDEST DUP2 EQ PUSH2 0x1785 JUMPI PUSH0 DUP1 REVERT JUMPDEST POP JUMP JUMPDEST PUSH0 DUP2 CALLDATALOAD SWAP1 POP PUSH2 0x1796 DUP2 PUSH2 0x1772 JUMP JUMPDEST SWAP3 SWAP2 POP POP JUMP JUMPDEST PUSH0 DUP1 REVERT JUMPDEST PUSH0 PUSH1 0x1F NOT PUSH1 0x1F DUP4 ADD AND SWAP1 POP SWAP2 SWAP1 POP JUMP JUMPDEST PUSH32 0x4E487B7100000000000000000000000000000000000000000000000000000000 PUSH0 MSTORE PUSH1 0x41 PUSH1 0x4 MSTORE PUSH1 0x24 PUSH0 REVERT JUMPDEST PUSH2 0x17E6 DUP3 PUSH2 0x17A0 JUMP JUMPDEST DUP2 ADD DUP2 DUP2 LT PUSH8 0xFFFFFFFFFFFFFFFF DUP3 GT OR ISZERO PUSH2 0x1805 JUMPI PUSH2 0x1804 PUSH2 0x17B0 JUMP JUMPDEST JUMPDEST DUP1 PUSH1 0x40 MSTORE POP POP POP JUMP JUMPDEST PUSH0 PUSH2 0x1817 PUSH2 0x1761 JUMP JUMPDEST SWAP1 POP PUSH2 0x1823 DUP3 DUP3 PUSH2 0x17DD JUMP JUMPDEST SWAP2 SWAP1 POP JUMP JUMPDEST PUSH0 PUSH8 0xFFFFFFFFFFFFFFFF DUP3 GT ISZERO PUSH2 0x1842 JUMPI PUSH2 0x1841 PUSH2 0x17B0 JUMP JUMPDEST JUMPDEST PUSH1 0x20 DUP3 MUL SWAP1 POP PUSH1 0x20 DUP2 ADD SWAP1 POP SWAP2 SWAP1 POP JUMP JUMPDEST PUSH0 DUP1 REVERT JUMPDEST PUSH0 PUSH2 0x1869 PUSH2 0x1864 DUP5 PUSH2 0x1828 JUMP JUMPDEST PUSH2 0x180E JUMP JUMPDEST SWAP1 POP DUP1 DUP4 DUP3 MSTORE PUSH1 0x20 DUP3 ADD SWAP1 POP PUSH1 0x20 DUP5 MUL DUP4 ADD DUP6 DUP2 GT ISZERO PUSH2 0x188C JUMPI PUSH2 0x188B PUSH2 0x1853 JUMP JUMPDEST JUMPDEST DUP4 JUMPDEST DUP2 DUP2 LT ISZERO PUSH2 0x18B5 JUMPI DUP1 PUSH2 0x18A1 DUP9 DUP3 PUSH2 0x1788 JUMP JUMPDEST DUP5 MSTORE PUSH1 0x20 DUP5 ADD SWAP4 POP POP PUSH1 0x20 DUP2 ADD SWAP1 POP PUSH2 0x188E JUMP JUMPDEST POP POP POP SWAP4 SWAP3 POP POP POP JUMP JUMPDEST PUSH0 DUP3 PUSH1 0x1F DUP4 ADD SLT PUSH2 0x18D3 JUMPI PUSH2 0x18D2 PUSH2 0x179C JUMP JUMPDEST JUMPDEST DUP2 CALLDATALOAD PUSH2 0x18E3 DUP5 DUP3 PUSH1 0x20 DUP7 ADD PUSH2 0x1857 JUMP JUMPDEST SWAP2 POP POP SWAP3 SWAP2 POP POP JUMP JUMPDEST PUSH0 DUP1 PUSH1 0x40 DUP4 DUP6 SUB SLT ISZERO PUSH2 0x1902 JUMPI PUSH2 0x1901 PUSH2 0x176A JUMP JUMPDEST JUMPDEST PUSH0 PUSH2 0x190F DUP6 DUP3 DUP7 ADD PUSH2 0x1788 JUMP JUMPDEST SWAP3 POP POP PUSH1 0x20 DUP4 ADD CALLDATALOAD PUSH8 0xFFFFFFFFFFFFFFFF DUP2 GT ISZERO PUSH2 0x1930 JUMPI PUSH2 0x192F PUSH2 0x176E JUMP JUMPDEST JUMPDEST PUSH2 0x193C DUP6 DUP3 DUP7 ADD PUSH2 0x18BF JUMP JUMPDEST SWAP2 POP POP SWAP3 POP SWAP3 SWAP1 POP JUMP JUMPDEST PUSH0 DUP1 REVERT JUMPDEST PUSH0 DUP1 DUP4 PUSH1 0x1F DUP5 ADD SLT PUSH2 0x195F JUMPI PUSH2 0x195E PUSH2 0x179C JUMP JUMPDEST JUMPDEST DUP3 CALLDATALOAD SWAP1 POP PUSH8 0xFFFFFFFFFFFFFFFF DUP2 GT ISZERO PUSH2 0x197C JUMPI PUSH2 0x197B PUSH2 0x1946 JUMP JUMPDEST JUMPDEST PUSH1 0x20 DUP4 ADD SWAP2 POP DUP4 PUSH1 0x1 DUP3 MUL DUP4 ADD GT ISZERO PUSH2 0x1998 JUMPI PUSH2 0x1997 PUSH2 0x1853 JUMP JUMPDEST JUMPDEST SWAP3 POP SWAP3 SWAP1 POP JUMP JUMPDEST PUSH0 DUP1 PUSH1 0x20 DUP4 DUP6 SUB SLT ISZERO PUSH2 0x19B5 JUMPI PUSH2 0x19B4 PUSH2 0x176A JUMP JUMPDEST JUMPDEST PUSH0 DUP4 ADD CALLDATALOAD PUSH8 0xFFFFFFFFFFFFFFFF DUP2 GT ISZERO PUSH2 0x19D2 JUMPI PUSH2 0x19D1 PUSH2 0x176E JUMP JUMPDEST JUMPDEST PUSH2 0x19DE DUP6 DUP3 DUP7 ADD PUSH2 0x194A JUMP JUMPDEST SWAP3 POP SWAP3 POP POP SWAP3 POP SWAP3 SWAP1 POP JUMP JUMPDEST PUSH0 PUSH20 0xFFFFFFFFFFFFFFFFFFFFFFFFFFFFFFFFFFFFFFFF DUP3 AND SWAP1 POP SWAP2 SWAP1 POP JUMP JUMPDEST PUSH0 PUSH2 0x1A13 DUP3 PUSH2 0x19EA JUMP JUMPDEST SWAP1 POP SWAP2 SWAP1 POP JUMP JUMPDEST PUSH2 0x1A23 DUP2 PUSH2 0x1A09 JUMP JUMPDEST DUP3 MSTORE POP POP JUMP JUMPDEST PUSH0 PUSH1 0x20 DUP3 ADD SWAP1 POP PUSH2 0x1A3C PUSH0 DUP4 ADD DUP5 PUSH2 0x1A1A JUMP JUMPDEST SWAP3 SWAP2 POP POP JUMP JUMPDEST PUSH0 DUP1 REVERT JUMPDEST PUSH0 PUSH8 0xFFFFFFFFFFFFFFFF DUP3 GT ISZERO PUSH2 0x1A60 JUMPI PUSH2 0x1A5F PUSH2 0x17B0 JUMP JUMPDEST JUMPDEST PUSH2 0x1A69 DUP3 PUSH2 0x17A0 JUMP JUMPDEST SWAP1 POP PUSH1 0x20 DUP2 ADD SWAP1 POP SWAP2 SWAP1 POP JUMP JUMPDEST DUP3 DUP2 DUP4 CALLDATACOPY PUSH0 DUP4 DUP4 ADD MSTORE POP POP POP JUMP JUMPDEST PUSH0 PUSH2 0x1A96 PUSH2 0x1A91 DUP5 PUSH2 0x1A46 JUMP JUMPDEST PUSH2 0x180E JUMP JUMPDEST SWAP1 POP DUP3 DUP2 MSTORE PUSH1 0x20 DUP2 ADD DUP5 DUP5 DUP5 ADD GT ISZERO PUSH2 0x1AB2 JUMPI PUSH2 0x1AB1 PUSH2 0x1A42 JUMP JUMPDEST JUMPDEST PUSH2 0x1ABD DUP5 DUP3 DUP6 PUSH2 0x1A76 JUMP JUMPDEST POP SWAP4 SWAP3 POP POP POP JUMP JUMPDEST PUSH0 DUP3 PUSH1 0x1F DUP4 ADD SLT PUSH2 0x1AD9 JUMPI PUSH2 0x1AD8 PUSH2 0x179C JUMP JUMPDEST JUMPDEST DUP2 CALLDATALOAD PUSH2 0x1AE9 DUP5 DUP3 PUSH1 0x20 DUP7 ADD PUSH2 0x1A84 JUMP JUMPDEST SWAP2 POP POP SWAP3 SWAP2 POP POP JUMP JUMPDEST PUSH0 PUSH1 0x20 DUP3 DUP5 SUB SLT ISZERO PUSH2 0x1B07 JUMPI PUSH2 0x1B06 PUSH2 0x176A JUMP JUMPDEST JUMPDEST PUSH0 DUP3 ADD CALLDATALOAD PUSH8 0xFFFFFFFFFFFFFFFF DUP2 GT ISZERO PUSH2 0x1B24 JUMPI PUSH2 0x1B23 PUSH2 0x176E JUMP JUMPDEST JUMPDEST PUSH2 0x1B30 DUP5 DUP3 DUP6 ADD PUSH2 0x1AC5 JUMP JUMPDEST SWAP2 POP POP SWAP3 SWAP2 POP POP JUMP JUMPDEST PUSH0 DUP2 ISZERO ISZERO SWAP1 POP SWAP2 SWAP1 POP JUMP JUMPDEST PUSH2 0x1B4D DUP2 PUSH2 0x1B39 JUMP JUMPDEST DUP3 MSTORE POP POP JUMP JUMPDEST PUSH0 DUP2 MLOAD SWAP1 POP SWAP2 SWAP1 POP JUMP JUMPDEST PUSH0 DUP3 DUP3 MSTORE PUSH1 0x20 DUP3 ADD SWAP1 POP SWAP3 SWAP2 POP POP JUMP JUMPDEST PUSH0 JUMPDEST DUP4 DUP2 LT ISZERO PUSH2 0x1B8A JUMPI DUP1 DUP3 ADD MLOAD DUP2 DUP5 ADD MSTORE PUSH1 0x20 DUP2 ADD SWAP1 POP PUSH2 0x1B6F JUMP JUMPDEST PUSH0 DUP5 DUP5 ADD MSTORE POP POP POP POP JUMP JUMPDEST PUSH0 PUSH2 0x1B9F DUP3 PUSH2 0x1B53 JUMP JUMPDEST PUSH2 0x1BA9 DUP2 DUP6 PUSH2 0x1B5D JUMP JUMPDEST SWAP4 POP PUSH2 0x1BB9 DUP2 DUP6 PUSH1 0x20 DUP7 ADD PUSH2 0x1B6D JUMP JUMPDEST PUSH2 0x1BC2 DUP2 PUSH2 0x17A0 JUMP JUMPDEST DUP5 ADD SWAP2 POP POP SWAP3 SWAP2 POP POP JUMP JUMPDEST PUSH0 PUSH1 0x40 DUP3 ADD SWAP1 POP PUSH2 0x1BE0 PUSH0 DUP4 ADD DUP6 PUSH2 0x1B44 JUMP JUMPDEST DUP2 DUP2 SUB PUSH1 0x20 DUP4 ADD MSTORE PUSH2 0x1BF2 DUP2 DUP5 PUSH2 0x1B95 JUMP JUMPDEST SWAP1 POP SWAP4 SWAP3 POP POP POP JUMP JUMPDEST PUSH0 PUSH1 0x20 DUP3 DUP5 SUB SLT ISZERO PUSH2 0x1C10 JUMPI PUSH2 0x1C0F PUSH2 0x176A JUMP JUMPDEST JUMPDEST PUSH0 PUSH2 0x1C1D DUP5 DUP3 DUP6 ADD PUSH2 0x1788 JUMP JUMPDEST SWAP2 POP POP SWAP3 SWAP2 POP POP JUMP JUMPDEST PUSH2 0x1C2F DUP2 PUSH2 0x1A09 JUMP JUMPDEST DUP2 EQ PUSH2 0x1C39 JUMPI PUSH0 DUP1 REVERT JUMPDEST POP JUMP JUMPDEST PUSH0 DUP2 CALLDATALOAD SWAP1 POP PUSH2 0x1C4A DUP2 PUSH2 0x1C26 JUMP JUMPDEST SWAP3 SWAP2 POP POP JUMP JUMPDEST PUSH0 PUSH1 0x20 DUP3 DUP5 SUB SLT ISZERO PUSH2 0x1C65 JUMPI PUSH2 0x1C64 PUSH2 0x176A JUMP JUMPDEST JUMPDEST PUSH0 PUSH2 0x1C72 DUP5 DUP3 DUP6 ADD PUSH2 0x1C3C JUMP JUMPDEST SWAP2 POP POP SWAP3 SWAP2 POP POP JUMP JUMPDEST PUSH0 DUP2 SWAP1 POP SWAP2 SWAP1 POP JUMP JUMPDEST PUSH0 PUSH2 0x1C9E PUSH2 0x1C99 PUSH2 0x1C94 DUP5 PUSH2 0x19EA JUMP JUMPDEST PUSH2 0x1C7B JUMP JUMPDEST PUSH2 0x19EA JUMP JUMPDEST SWAP1 POP SWAP2 SWAP1 POP JUMP JUMPDEST PUSH0 PUSH2 0x1CAF DUP3 PUSH2 0x1C84 JUMP JUMPDEST SWAP1 POP SWAP2 SWAP1 POP JUMP JUMPDEST PUSH0 PUSH2 0x1CC0 DUP3 PUSH2 0x1CA5 JUMP JUMPDEST SWAP1 POP SWAP2 SWAP1 POP JUMP JUMPDEST PUSH2 0x1CD0 DUP2 PUSH2 0x1CB6 JUMP JUMPDEST DUP3 MSTORE POP POP JUMP JUMPDEST PUSH0 PUSH1 0x20 DUP3 ADD SWAP1 POP PUSH2 0x1CE9 PUSH0 DUP4 ADD DUP5 PUSH2 0x1CC7 JUMP JUMPDEST SWAP3 SWAP2 POP POP JUMP JUMPDEST PUSH0 PUSH1 0x40 DUP3 ADD SWAP1 POP PUSH2 0x1D02 PUSH0 DUP4 ADD DUP6 PUSH2 0x1B44 JUMP JUMPDEST PUSH2 0x1D0F PUSH1 0x20 DUP4 ADD DUP5 PUSH2 0x1B44 JUMP JUMPDEST SWAP4 SWAP3 POP POP POP JUMP JUMPDEST PUSH0 PUSH1 0x40 DUP3 ADD SWAP1 POP PUSH2 0x1D29 PUSH0 DUP4 ADD DUP6 PUSH2 0x1A1A JUMP JUMPDEST PUSH2 0x1D36 PUSH1 0x20 DUP4 ADD DUP5 PUSH2 0x1A1A JUMP JUMPDEST SWAP4 SWAP3 POP POP POP JUMP JUMPDEST PUSH0 PUSH1 0x60 DUP3 ADD SWAP1 POP PUSH2 0x1D50 PUSH0 DUP4 ADD DUP7 PUSH2 0x16AD JUMP JUMPDEST PUSH2 0x1D5D PUSH1 0x20 DUP4 ADD DUP6 PUSH2 0x16AD JUMP JUMPDEST PUSH2 0x1D6A PUSH1 0x40 DUP4 ADD DUP5 PUSH2 0x16AD JUMP JUMPDEST SWAP5 SWAP4 POP POP POP POP JUMP JUMPDEST PUSH0 DUP2 SWAP1 POP SWAP2 SWAP1 POP JUMP JUMPDEST PUSH2 0x1D84 DUP2 PUSH2 0x1D72 JUMP JUMPDEST DUP3 MSTORE POP POP JUMP JUMPDEST PUSH2 0x1D93 DUP2 PUSH2 0x16A4 JUMP JUMPDEST DUP3 MSTORE POP POP JUMP JUMPDEST PUSH0 PUSH2 0xFFFF DUP3 AND SWAP1 POP SWAP2 SWAP1 POP JUMP JUMPDEST PUSH2 0x1DAF DUP2 PUSH2 0x1D99 JUMP JUMPDEST DUP3 MSTORE POP POP JUMP JUMPDEST PUSH0 PUSH4 0xFFFFFFFF DUP3 AND SWAP1 POP SWAP2 SWAP1 POP JUMP JUMPDEST PUSH2 0x1DCD DUP2 PUSH2 0x1DB5 JUMP JUMPDEST DUP3 MSTORE POP POP JUMP JUMPDEST PUSH0 DUP3 DUP3 MSTORE PUSH1 0x20 DUP3 ADD SWAP1 POP SWAP3 SWAP2 POP POP JUMP JUMPDEST PUSH0 PUSH2 0x1DED DUP3 PUSH2 0x1B53 JUMP JUMPDEST PUSH2 0x1DF7 DUP2 DUP6 PUSH2 0x1DD3 JUMP JUMPDEST SWAP4 POP PUSH2 0x1E07 DUP2 DUP6 PUSH1 0x20 DUP7 ADD PUSH2 0x1B6D JUMP JUMPDEST PUSH2 0x1E10 DUP2 PUSH2 0x17A0 JUMP JUMPDEST DUP5 ADD SWAP2 POP POP SWAP3 SWAP2 POP POP JUMP JUMPDEST PUSH0 PUSH1 0xC0 DUP4 ADD PUSH0 DUP4 ADD MLOAD PUSH2 0x1E30 PUSH0 DUP7 ADD DUP3 PUSH2 0x1D7B JUMP JUMPDEST POP PUSH1 0x20 DUP4 ADD MLOAD PUSH2 0x1E43 PUSH1 0x20 DUP7 ADD DUP3 PUSH2 0x1D8A JUMP JUMPDEST POP PUSH1 0x40 DUP4 ADD MLOAD PUSH2 0x1E56 PUSH1 0x40 DUP7 ADD DUP3 PUSH2 0x1DA6 JUMP JUMPDEST POP PUSH1 0x60 DUP4 ADD MLOAD PUSH2 0x1E69 PUSH1 0x60 DUP7 ADD DUP3 PUSH2 0x1DC4 JUMP JUMPDEST POP PUSH1 0x80 DUP4 ADD MLOAD PUSH2 0x1E7C PUSH1 0x80 DUP7 ADD DUP3 PUSH2 0x1DC4 JUMP JUMPDEST POP PUSH1 0xA0 DUP4 ADD MLOAD DUP5 DUP3 SUB PUSH1 0xA0 DUP7 ADD MSTORE PUSH2 0x1E94 DUP3 DUP3 PUSH2 0x1DE3 JUMP JUMPDEST SWAP2 POP POP DUP1 SWAP2 POP POP SWAP3 SWAP2 POP POP JUMP JUMPDEST PUSH0 PUSH1 0x20 DUP3 ADD SWAP1 POP DUP2 DUP2 SUB PUSH0 DUP4 ADD MSTORE PUSH2 0x1EB9 DUP2 DUP5 PUSH2 0x1E1B JUMP JUMPDEST SWAP1 POP SWAP3 SWAP2 POP POP JUMP JUMPDEST PUSH0 DUP2 MLOAD SWAP1 POP PUSH2 0x1ECF DUP2 PUSH2 0x1772 JUMP JUMPDEST SWAP3 SWAP2 POP POP JUMP JUMPDEST PUSH0 PUSH1 0x20 DUP3 DUP5 SUB SLT ISZERO PUSH2 0x1EEA JUMPI PUSH2 0x1EE9 PUSH2 0x176A JUMP JUMPDEST JUMPDEST PUSH0 PUSH2 0x1EF7 DUP5 DUP3 DUP6 ADD PUSH2 0x1EC1 JUMP JUMPDEST SWAP2 POP POP SWAP3 SWAP2 POP POP JUMP JUMPDEST PUSH2 0x1F09 DUP2 PUSH2 0x1DB5 JUMP JUMPDEST DUP3 MSTORE POP POP JUMP JUMPDEST PUSH0 PUSH1 0x40 DUP3 ADD SWAP1 POP PUSH2 0x1F22 PUSH0 DUP4 ADD DUP6 PUSH2 0x16AD JUMP JUMPDEST PUSH2 0x1F2F PUSH1 0x20 DUP4 ADD DUP5 PUSH2 0x1F00 JUMP JUMPDEST SWAP4 SWAP3 POP POP POP JUMP JUMPDEST PUSH32 0x4E487B7100000000000000000000000000000000000000000000000000000000 PUSH0 MSTORE PUSH1 0x11 PUSH1 0x4 MSTORE PUSH1 0x24 PUSH0 REVERT JUMPDEST PUSH0 PUSH2 0x1F6D DUP3 PUSH2 0x16A4 JUMP JUMPDEST SWAP2 POP PUSH2 0x1F78 DUP4 PUSH2 0x16A4 JUMP JUMPDEST SWAP3 POP DUP3 DUP3 SUB SWAP1 POP DUP2 DUP2 GT ISZERO PUSH2 0x1F90 JUMPI PUSH2 0x1F8F PUSH2 0x1F36 JUMP JUMPDEST JUMPDEST SWAP3 SWAP2 POP POP JUMP JUMPDEST PUSH0 DUP3 DUP3 MSTORE PUSH1 0x20 DUP3 ADD SWAP1 POP SWAP3 SWAP2 POP POP JUMP JUMPDEST PUSH32 0x4D7573742062652070726F706F736564206F776E657200000000000000000000 PUSH0 DUP3 ADD MSTORE POP JUMP JUMPDEST PUSH0 PUSH2 0x1FDA PUSH1 0x16 DUP4 PUSH2 0x1F96 JUMP JUMPDEST SWAP2 POP PUSH2 0x1FE5 DUP3 PUSH2 0x1FA6 JUMP JUMPDEST PUSH1 0x20 DUP3 ADD SWAP1 POP SWAP2 SWAP1 POP JUMP JUMPDEST PUSH0 PUSH1 0x20 DUP3 ADD SWAP1 POP DUP2 DUP2 SUB PUSH0 DUP4 ADD MSTORE PUSH2 0x2007 DUP2 PUSH2 0x1FCE JUMP JUMPDEST SWAP1 POP SWAP2 SWAP1 POP JUMP JUMPDEST PUSH0 PUSH1 0x60 DUP3 ADD SWAP1 POP PUSH2 0x2021 PUSH0 DUP4 ADD DUP7 PUSH2 0x1A1A JUMP JUMPDEST PUSH2 0x202E PUSH1 0x20 DUP4 ADD DUP6 PUSH2 0x1A1A JUMP JUMPDEST PUSH2 0x203B PUSH1 0x40 DUP4 ADD DUP5 PUSH2 0x1A1A JUMP JUMPDEST SWAP5 SWAP4 POP POP POP POP JUMP JUMPDEST PUSH32 0x4E487B7100000000000000000000000000000000000000000000000000000000 PUSH0 MSTORE PUSH1 0x32 PUSH1 0x4 MSTORE PUSH1 0x24 PUSH0 REVERT JUMPDEST PUSH32 0x72657175657374206E6F7420666F756E64000000000000000000000000000000 PUSH0 DUP3 ADD MSTORE POP JUMP JUMPDEST PUSH0 PUSH2 0x20A4 PUSH1 0x11 DUP4 PUSH2 0x1F96 JUMP JUMPDEST SWAP2 POP PUSH2 0x20AF DUP3 PUSH2 0x2070 JUMP JUMPDEST PUSH1 0x20 DUP3 ADD SWAP1 POP SWAP2 SWAP1 POP JUMP JUMPDEST PUSH0 PUSH1 0x20 DUP3 ADD SWAP1 POP DUP2 DUP2 SUB PUSH0 DUP4 ADD MSTORE PUSH2 0x20D1 DUP2 PUSH2 0x2098 JUMP JUMPDEST SWAP1 POP SWAP2 SWAP1 POP JUMP JUMPDEST PUSH0 DUP2 MLOAD SWAP1 POP SWAP2 SWAP1 POP JUMP JUMPDEST PUSH0 DUP3 DUP3 MSTORE PUSH1 0x20 DUP3 ADD SWAP1 POP SWAP3 SWAP2 POP POP JUMP JUMPDEST PUSH0 DUP2 SWAP1 POP PUSH1 0x20 DUP3 ADD SWAP1 POP SWAP2 SWAP1 POP JUMP JUMPDEST PUSH0 PUSH2 0x210C DUP4 DUP4 PUSH2 0x1D8A JUMP JUMPDEST PUSH1 0x20 DUP4 ADD SWAP1 POP SWAP3 SWAP2 POP POP JUMP JUMPDEST PUSH0 PUSH1 0x20 DUP3 ADD SWAP1 POP SWAP2 SWAP1 POP JUMP JUMPDEST PUSH0 PUSH2 0x212E DUP3 PUSH2 0x20D8 JUMP JUMPDEST PUSH2 0x2138 DUP2 DUP6 PUSH2 0x20E2 JUMP JUMPDEST SWAP4 POP PUSH2 0x2143 DUP4 PUSH2 0x20F2 JUMP JUMPDEST DUP1 PUSH0 JUMPDEST DUP4 DUP2 LT ISZERO PUSH2 0x2173 JUMPI DUP2 MLOAD PUSH2 0x215A DUP9 DUP3 PUSH2 0x2101 JUMP JUMPDEST SWAP8 POP PUSH2 0x2165 DUP4 PUSH2 0x2118 JUMP JUMPDEST SWAP3 POP POP PUSH1 0x1 DUP2 ADD SWAP1 POP PUSH2 0x2146 JUMP JUMPDEST POP DUP6 SWAP4 POP POP POP POP SWAP3 SWAP2 POP POP JUMP JUMPDEST PUSH0 PUSH1 0x40 DUP3 ADD SWAP1 POP PUSH2 0x2193 PUSH0 DUP4 ADD DUP6 PUSH2 0x16AD JUMP JUMPDEST DUP2 DUP2 SUB PUSH1 0x20 DUP4 ADD MSTORE PUSH2 0x21A5 DUP2 DUP5 PUSH2 0x2124 JUMP JUMPDEST SWAP1 POP SWAP4 SWAP3 POP POP POP JUMP JUMPDEST PUSH32 0x4E487B7100000000000000000000000000000000000000000000000000000000 PUSH0 MSTORE PUSH1 0x12 PUSH1 0x4 MSTORE PUSH1 0x24 PUSH0 REVERT JUMPDEST PUSH0 PUSH2 0x21E5 DUP3 PUSH2 0x16A4 JUMP JUMPDEST SWAP2 POP PUSH2 0x21F0 DUP4 PUSH2 0x16A4 JUMP JUMPDEST SWAP3 POP DUP3 PUSH2 0x2200 JUMPI PUSH2 0x21FF PUSH2 0x21AE JUMP JUMPDEST JUMPDEST DUP3 DUP3 MOD SWAP1 POP SWAP3 SWAP2 POP POP JUMP JUMPDEST PUSH0 DUP2 SWAP1 POP SWAP3 SWAP2 POP POP JUMP JUMPDEST POP JUMP JUMPDEST PUSH0 PUSH2 0x2223 PUSH0 DUP4 PUSH2 0x220B JUMP JUMPDEST SWAP2 POP PUSH2 0x222E DUP3 PUSH2 0x2215 JUMP JUMPDEST PUSH0 DUP3 ADD SWAP1 POP SWAP2 SWAP1 POP JUMP JUMPDEST PUSH0 PUSH2 0x2242 DUP3 PUSH2 0x2218 JUMP JUMPDEST SWAP2 POP DUP2 SWAP1 POP SWAP2 SWAP1 POP JUMP JUMPDEST PUSH2 0x2255 DUP2 PUSH2 0x1B39 JUMP JUMPDEST DUP3 MSTORE POP POP JUMP JUMPDEST PUSH1 0x20 DUP3 ADD PUSH0 DUP3 ADD MLOAD PUSH2 0x226F PUSH0 DUP6 ADD DUP3 PUSH2 0x224C JUMP JUMPDEST POP POP POP POP JUMP JUMPDEST PUSH0 PUSH1 0x20 DUP3 ADD SWAP1 POP PUSH2 0x2288 PUSH0 DUP4 ADD DUP5 PUSH2 0x225B JUMP JUMPDEST SWAP3 SWAP2 POP POP JUMP JUMPDEST PUSH32 0x4F6E6C792063616C6C61626C65206279206F776E657200000000000000000000 PUSH0 DUP3 ADD MSTORE POP JUMP JUMPDEST PUSH0 PUSH2 0x22C2 PUSH1 0x16 DUP4 PUSH2 0x1F96 JUMP JUMPDEST SWAP2 POP PUSH2 0x22CD DUP3 PUSH2 0x228E JUMP JUMPDEST PUSH1 0x20 DUP3 ADD SWAP1 POP SWAP2 SWAP1 POP JUMP JUMPDEST PUSH0 PUSH1 0x20 DUP3 ADD SWAP1 POP DUP2 DUP2 SUB PUSH0 DUP4 ADD MSTORE PUSH2 0x22EF DUP2 PUSH2 0x22B6 JUMP JUMPDEST SWAP1 POP SWAP2 SWAP1 POP JUMP JUMPDEST PUSH32 0x43616E6E6F74207472616E7366657220746F2073656C66000000000000000000 PUSH0 DUP3 ADD MSTORE POP JUMP JUMPDEST PUSH0 PUSH2 0x232A PUSH1 0x17 DUP4 PUSH2 0x1F96 JUMP JUMPDEST SWAP2 POP PUSH2 0x2335 DUP3 PUSH2 0x22F6 JUMP JUMPDEST PUSH1 0x20 DUP3 ADD SWAP1 POP SWAP2 SWAP1 POP JUMP JUMPDEST PUSH0 PUSH1 0x20 DUP3 ADD SWAP1 POP DUP2 DUP2 SUB PUSH0 DUP4 ADD MSTORE PUSH2 0x2357 DUP2 PUSH2 0x231E JUMP JUMPDEST SWAP1 POP SWAP2 SWAP1 POP JUMP INVALID LOG2 PUSH5 0x6970667358 0x22 SLT KECCAK256 POP DUP8 LOG4 0xF KECCAK256 0x23 PUSH21 0x948461F07496D8583C2BCCF6A6FD7F569236FC43F9 0xBA DIV 0xAB DUP2 PUSH5 0x736F6C6343 STOP ADDMOD EQ STOP CALLER "
		},
		"gasEstimates": {
			"creation": {
				"codeDepositCost": "1821600",
				"executionCost": "infinite",
				"totalCost": "infinite"
			},
			"external": {
				"acceptOwnership()": "54644",
				"checkUpkeep(bytes)": "infinite",
				"enterRaffle()": "infinite",
				"getEntranceFee()": "infinite",
				"getInterval()": "infinite",
				"getLastTimeStamp()": "2476",
				"getNumWords()": "383",
				"getNumberOfPlayers()": "2572",
				"getPlayer(uint256)": "5020",
				"getRaffleState()": "2607",
				"getRecentWinner()": "2538",
				"getRequestConfirmations()": "405",
				"lastRequestId()": "2535",
				"owner()": "2560",
				"performUpkeep(bytes)": "infinite",
				"rawFulfillRandomWords(uint256,uint256[])": "infinite",
				"requestIds(uint256)": "infinite",
				"s_requests(uint256)": "infinite",
				"s_vrfCoordinator()": "infinite",
				"setCoordinator(address)": "infinite",
				"transferOwnership(address)": "30733"
			},
			"internal": {
				"fulfillRandomWords(uint256,uint256[] memory)": "infinite"
			}
		},
		"methodIdentifiers": {
			"acceptOwnership()": "79ba5097",
			"checkUpkeep(bytes)": "6e04ff0d",
			"enterRaffle()": "2cfcc539",
			"getEntranceFee()": "09bc33a7",
			"getInterval()": "91ad27b4",
			"getLastTimeStamp()": "c1c244e8",
			"getNumWords()": "53a2c19a",
			"getNumberOfPlayers()": "fd6673f5",
			"getPlayer(uint256)": "e55ae4e8",
			"getRaffleState()": "115cbaf5",
			"getRecentWinner()": "473f1ddc",
			"getRequestConfirmations()": "5f1b0fd8",
			"lastRequestId()": "fc2a88c3",
			"owner()": "8da5cb5b",
			"performUpkeep(bytes)": "4585e33b",
			"rawFulfillRandomWords(uint256,uint256[])": "1fe543e3",
			"requestIds(uint256)": "8796ba8c",
			"s_requests(uint256)": "a168fa89",
			"s_vrfCoordinator()": "9eccacf6",
			"setCoordinator(address)": "8ea98117",
			"transferOwnership(address)": "f2fde38b"
		}
	},
	"abi": [
		{
			"inputs": [
				{
					"internalType": "uint256",
					"name": "subscriptionId",
					"type": "uint256"
				},
				{
					"internalType": "bytes32",
					"name": "keyHash",
					"type": "bytes32"
				},
				{
					"internalType": "uint256",
					"name": "interval",
					"type": "uint256"
				},
				{
					"internalType": "uint256",
					"name": "entranceFee",
					"type": "uint256"
				},
				{
					"internalType": "uint32",
					"name": "callbackGasLimit",
					"type": "uint32"
				},
				{
					"internalType": "address",
					"name": "vrfCoordinatorV2",
					"type": "address"
				}
			],
			"stateMutability": "nonpayable",
			"type": "constructor"
		},
		{
			"inputs": [
				{
					"internalType": "address",
					"name": "have",
					"type": "address"
				},
				{
					"internalType": "address",
					"name": "want",
					"type": "address"
				}
			],
			"name": "OnlyCoordinatorCanFulfill",
			"type": "error"
		},
		{
			"inputs": [
				{
					"internalType": "address",
					"name": "have",
					"type": "address"
				},
				{
					"internalType": "address",
					"name": "owner",
					"type": "address"
				},
				{
					"internalType": "address",
					"name": "coordinator",
					"type": "address"
				}
			],
			"name": "OnlyOwnerOrCoordinator",
			"type": "error"
		},
		{
			"inputs": [],
			"name": "Raffle__RaffleNotOpen",
			"type": "error"
		},
		{
			"inputs": [],
			"name": "Raffle__SendMoreToEnterRaffle",
			"type": "error"
		},
		{
			"inputs": [],
			"name": "Raffle__TransferFailed",
			"type": "error"
		},
		{
			"inputs": [
				{
					"internalType": "uint256",
					"name": "currentBalance",
					"type": "uint256"
				},
				{
					"internalType": "uint256",
					"name": "numPlayers",
					"type": "uint256"
				},
				{
					"internalType": "uint256",
					"name": "raffleState",
					"type": "uint256"
				}
			],
			"name": "Raffle__UpkeepNotNeeded",
			"type": "error"
		},
		{
			"inputs": [],
			"name": "ZeroAddress",
			"type": "error"
		},
		{
			"anonymous": false,
			"inputs": [
				{
					"indexed": false,
					"internalType": "address",
					"name": "vrfCoordinator",
					"type": "address"
				}
			],
			"name": "CoordinatorSet",
			"type": "event"
		},
		{
			"anonymous": false,
			"inputs": [
				{
					"indexed": true,
					"internalType": "address",
					"name": "from",
					"type": "address"
				},
				{
					"indexed": true,
					"internalType": "address",
					"name": "to",
					"type": "address"
				}
			],
			"name": "OwnershipTransferRequested",
			"type": "event"
		},
		{
			"anonymous": false,
			"inputs": [
				{
					"indexed": true,
					"internalType": "address",
					"name": "from",
					"type": "address"
				},
				{
					"indexed": true,
					"internalType": "address",
					"name": "to",
					"type": "address"
				}
			],
			"name": "OwnershipTransferred",
			"type": "event"
		},
		{
			"anonymous": false,
			"inputs": [
				{
					"indexed": true,
					"internalType": "address",
					"name": "player",
					"type": "address"
				}
			],
			"name": "RaffleEnter",
			"type": "event"
		},
		{
			"anonymous": false,
			"inputs": [
				{
					"indexed": false,
					"internalType": "uint256",
					"name": "requestId",
					"type": "uint256"
				},
				{
					"indexed": false,
					"internalType": "uint256[]",
					"name": "randomWords",
					"type": "uint256[]"
				}
			],
			"name": "RequestFulfilled",
			"type": "event"
		},
		{
			"anonymous": false,
			"inputs": [
				{
					"indexed": false,
					"internalType": "uint256",
					"name": "requestId",
					"type": "uint256"
				},
				{
					"indexed": false,
					"internalType": "uint32",
					"name": "numWords",
					"type": "uint32"
				}
			],
			"name": "RequestSent",
			"type": "event"
		},
		{
			"anonymous": false,
			"inputs": [
				{
					"indexed": true,
					"internalType": "uint256",
					"name": "requestId",
					"type": "uint256"
				}
			],
			"name": "RequestedRaffleWinner",
			"type": "event"
		},
		{
			"anonymous": false,
			"inputs": [
				{
					"indexed": true,
					"internalType": "address",
					"name": "player",
					"type": "address"
				}
			],
			"name": "WinnerPicked",
			"type": "event"
		},
		{
			"inputs": [],
			"name": "acceptOwnership",
			"outputs": [],
			"stateMutability": "nonpayable",
			"type": "function"
		},
		{
			"inputs": [
				{
					"internalType": "bytes",
					"name": "",
					"type": "bytes"
				}
			],
			"name": "checkUpkeep",
			"outputs": [
				{
					"internalType": "bool",
					"name": "upkeepNeeded",
					"type": "bool"
				},
				{
					"internalType": "bytes",
					"name": "",
					"type": "bytes"
				}
			],
			"stateMutability": "view",
			"type": "function"
		},
		{
			"inputs": [],
			"name": "enterRaffle",
			"outputs": [],
			"stateMutability": "payable",
			"type": "function"
		},
		{
			"inputs": [],
			"name": "getEntranceFee",
			"outputs": [
				{
					"internalType": "uint256",
					"name": "",
					"type": "uint256"
				}
			],
			"stateMutability": "view",
			"type": "function"
		},
		{
			"inputs": [],
			"name": "getInterval",
			"outputs": [
				{
					"internalType": "uint256",
					"name": "",
					"type": "uint256"
				}
			],
			"stateMutability": "view",
			"type": "function"
		},
		{
			"inputs": [],
			"name": "getLastTimeStamp",
			"outputs": [
				{
					"internalType": "uint256",
					"name": "",
					"type": "uint256"
				}
			],
			"stateMutability": "view",
			"type": "function"
		},
		{
			"inputs": [],
			"name": "getNumWords",
			"outputs": [
				{
					"internalType": "uint256",
					"name": "",
					"type": "uint256"
				}
			],
			"stateMutability": "pure",
			"type": "function"
		},
		{
			"inputs": [],
			"name": "getNumberOfPlayers",
			"outputs": [
				{
					"internalType": "uint256",
					"name": "",
					"type": "uint256"
				}
			],
			"stateMutability": "view",
			"type": "function"
		},
		{
			"inputs": [
				{
					"internalType": "uint256",
					"name": "index",
					"type": "uint256"
				}
			],
			"name": "getPlayer",
			"outputs": [
				{
					"internalType": "address",
					"name": "",
					"type": "address"
				}
			],
			"stateMutability": "view",
			"type": "function"
		},
		{
			"inputs": [],
			"name": "getRaffleState",
			"outputs": [
				{
					"internalType": "enum Raffle.RaffleState",
					"name": "",
					"type": "uint8"
				}
			],
			"stateMutability": "view",
			"type": "function"
		},
		{
			"inputs": [],
			"name": "getRecentWinner",
			"outputs": [
				{
					"internalType": "address",
					"name": "",
					"type": "address"
				}
			],
			"stateMutability": "view",
			"type": "function"
		},
		{
			"inputs": [],
			"name": "getRequestConfirmations",
			"outputs": [
				{
					"internalType": "uint256",
					"name": "",
					"type": "uint256"
				}
			],
			"stateMutability": "pure",
			"type": "function"
		},
		{
			"inputs": [],
			"name": "lastRequestId",
			"outputs": [
				{
					"internalType": "uint256",
					"name": "",
					"type": "uint256"
				}
			],
			"stateMutability": "view",
			"type": "function"
		},
		{
			"inputs": [],
			"name": "owner",
			"outputs": [
				{
					"internalType": "address",
					"name": "",
					"type": "address"
				}
			],
			"stateMutability": "view",
			"type": "function"
		},
		{
			"inputs": [
				{
					"internalType": "bytes",
					"name": "",
					"type": "bytes"
				}
			],
			"name": "performUpkeep",
			"outputs": [],
			"stateMutability": "nonpayable",
			"type": "function"
		},
		{
			"inputs": [
				{
					"internalType": "uint256",
					"name": "requestId",
					"type": "uint256"
				},
				{
					"internalType": "uint256[]",
					"name": "randomWords",
					"type": "uint256[]"
				}
			],
			"name": "rawFulfillRandomWords",
			"outputs": [],
			"stateMutability": "nonpayable",
			"type": "function"
		},
		{
			"inputs": [
				{
					"internalType": "uint256",
					"name": "",
					"type": "uint256"
				}
			],
			"name": "requestIds",
			"outputs": [
				{
					"internalType": "uint256",
					"name": "",
					"type": "uint256"
				}
			],
			"stateMutability": "view",
			"type": "function"
		},
		{
			"inputs": [
				{
					"internalType": "uint256",
					"name": "",
					"type": "uint256"
				}
			],
			"name": "s_requests",
			"outputs": [
				{
					"internalType": "bool",
					"name": "fulfilled",
					"type": "bool"
				},
				{
					"internalType": "bool",
					"name": "exists",
					"type": "bool"
				}
			],
			"stateMutability": "view",
			"type": "function"
		},
		{
			"inputs": [],
			"name": "s_vrfCoordinator",
			"outputs": [
				{
					"internalType": "contract IVRFCoordinatorV2Plus",
					"name": "",
					"type": "address"
				}
			],
			"stateMutability": "view",
			"type": "function"
		},
		{
			"inputs": [
				{
					"internalType": "address",
					"name": "_vrfCoordinator",
					"type": "address"
				}
			],
			"name": "setCoordinator",
			"outputs": [],
			"stateMutability": "nonpayable",
			"type": "function"
		},
		{
			"inputs": [
				{
					"internalType": "address",
					"name": "to",
					"type": "address"
				}
			],
			"name": "transferOwnership",
			"outputs": [],
			"stateMutability": "nonpayable",
			"type": "function"
		}
	]
}